{
  "address": "0xC50064efA4D104E7A1b4E29ED8177a8B51746150",
  "abi": [
    {
      "anonymous": false,
      "inputs": [
        {
          "indexed": true,
          "internalType": "address",
          "name": "_from",
          "type": "address"
        },
        {
          "indexed": true,
          "internalType": "address",
          "name": "_to",
          "type": "address"
        },
        {
          "indexed": false,
          "internalType": "uint256",
          "name": "_amount",
          "type": "uint256"
        },
        {
          "indexed": false,
          "internalType": "uint256",
          "name": "_fee",
          "type": "uint256"
        },
        {
          "indexed": false,
          "internalType": "bytes",
          "name": "_data",
          "type": "bytes"
        }
      ],
      "name": "FastWithdrawalInitiated",
      "type": "event"
    },
    {
      "inputs": [
        {
          "internalType": "address",
          "name": "_origin",
          "type": "address"
        },
        {
          "internalType": "address",
          "name": "_l1Token",
          "type": "address"
        },
        {
          "internalType": "address",
          "name": "_l2Token",
          "type": "address"
        },
        {
          "internalType": "address",
          "name": "_to",
          "type": "address"
        },
        {
          "internalType": "uint256",
          "name": "_amount",
          "type": "uint256"
        },
        {
          "internalType": "uint256",
          "name": "_fee",
          "type": "uint256"
        },
        {
          "internalType": "uint32",
          "name": "_l1Gas",
          "type": "uint32"
        },
        {
          "internalType": "bytes",
          "name": "_data",
          "type": "bytes"
        }
      ],
      "name": "fastWithdraw",
      "outputs": [],
      "stateMutability": "nonpayable",
      "type": "function"
    },
    {
      "inputs": [
        {
          "internalType": "address",
          "name": "_l2TokenBridge",
          "type": "address"
        },
        {
          "internalType": "address",
          "name": "_l1Oracle",
          "type": "address"
        }
      ],
      "name": "initialize",
      "outputs": [],
      "stateMutability": "nonpayable",
      "type": "function"
    },
    {
      "inputs": [],
      "name": "initialized",
      "outputs": [
        {
          "internalType": "bool",
          "name": "",
          "type": "bool"
        }
      ],
      "stateMutability": "view",
      "type": "function"
    },
    {
      "inputs": [],
      "name": "l1Oracle",
      "outputs": [
        {
          "internalType": "address",
          "name": "",
          "type": "address"
        }
      ],
      "stateMutability": "view",
      "type": "function"
    },
    {
      "inputs": [],
      "name": "l2TokenBridge",
      "outputs": [
        {
          "internalType": "contract iOVM_L2ERC20Bridge",
          "name": "",
          "type": "address"
        }
      ],
      "stateMutability": "view",
      "type": "function"
    }
  ],
  "transactionHash": "0xf7bac9d42ac86a0f1d912b094ce00dac5a7efaaf628cb9de3831f71d134c862e",
  "args": [],
  "solcInputHash": "6e67e130b431db3868689cb32edb38ee",
  "bytecode": "0x608060405234801561001057600080fd5b50610dbb806100206000396000f3fe608060405234801561001057600080fd5b50600436106100575760003560e01c8063021634251461005c578063158ef93e1461007a578063485cc955146100985780637090fd90146100b457806391c49bf8146100d0575b600080fd5b6100646100ee565b6040516100719190610a71565b60405180910390f35b610082610114565b60405161008f9190610b1f565b60405180910390f35b6100b260048036038101906100ad9190610777565b610127565b005b6100ce60048036038101906100c991906107b3565b610216565b005b6100d86105ef565b6040516100e59190610b3a565b60405180910390f35b600160009054906101000a900473ffffffffffffffffffffffffffffffffffffffff1681565b600160149054906101000a900460ff1681565b600160149054906101000a900460ff1615610177576040517f08c379a000000000000000000000000000000000000000000000000000000000815260040161016e90610b75565b60405180910390fd5b816000806101000a81548173ffffffffffffffffffffffffffffffffffffffff021916908373ffffffffffffffffffffffffffffffffffffffff16021790555080600160006101000a81548173ffffffffffffffffffffffffffffffffffffffff021916908373ffffffffffffffffffffffffffffffffffffffff16021790555060018060146101000a81548160ff0219169083151502179055505050565b3373ffffffffffffffffffffffffffffffffffffffff168973ffffffffffffffffffffffffffffffffffffffff1614610284576040517f08c379a000000000000000000000000000000000000000000000000000000000815260040161027b90610b95565b60405180910390fd5b600160009054906101000a900473ffffffffffffffffffffffffffffffffffffffff1673ffffffffffffffffffffffffffffffffffffffff168673ffffffffffffffffffffffffffffffffffffffff1614610314576040517f08c379a000000000000000000000000000000000000000000000000000000000815260040161030b90610bb5565b60405180910390fd5b60008773ffffffffffffffffffffffffffffffffffffffff1663c01e1bd66040518163ffffffff1660e01b8152600401602060405180830381600087803b15801561035e57600080fd5b505af1158015610372573d6000803e3d6000fd5b505050506040513d601f19601f82011682018060405250810190610396919061074e565b90508873ffffffffffffffffffffffffffffffffffffffff168173ffffffffffffffffffffffffffffffffffffffff1614610406576040517f08c379a00000000000000000000000000000000000000000000000000000000081526004016103fd90610b55565b60405180910390fd5b60006104128787610613565b90508873ffffffffffffffffffffffffffffffffffffffff166323b872dd3330846040518463ffffffff1660e01b815260040161045193929190610a8c565b602060405180830381600087803b15801561046b57600080fd5b505af115801561047f573d6000803e3d6000fd5b505050506040513d601f19601f820116820180604052508101906104a39190610881565b6104e2576040517f08c379a00000000000000000000000000000000000000000000000000000000081526004016104d990610bd5565b60405180910390fd5b60008054906101000a900473ffffffffffffffffffffffffffffffffffffffff1673ffffffffffffffffffffffffffffffffffffffff1663a3a795488a8a848989896040518763ffffffff1660e01b815260040161054596959493929190610ac3565b600060405180830381600087803b15801561055f57600080fd5b505af1158015610573573d6000803e3d6000fd5b505050508773ffffffffffffffffffffffffffffffffffffffff168b73ffffffffffffffffffffffffffffffffffffffff167ffc778621ed40ba9f6b88741884403fa6180e9bafad81d4a2813e8f1fcb7bd24f898988886040516105da9493929190610bf5565b60405180910390a35050505050505050505050565b60008054906101000a900473ffffffffffffffffffffffffffffffffffffffff1681565b600080828401905083811015610691576040517f08c379a000000000000000000000000000000000000000000000000000000000815260040180806020018281038252601b8152602001807f536166654d6174683a206164646974696f6e206f766572666c6f77000000000081525060200191505060405180910390fd5b8091505092915050565b6000813590506106aa81610d29565b92915050565b6000815190506106bf81610d29565b92915050565b6000815190506106d481610d40565b92915050565b60008083601f8401126106ec57600080fd5b8235905067ffffffffffffffff81111561070557600080fd5b60208301915083600182028301111561071d57600080fd5b9250929050565b60008135905061073381610d57565b92915050565b60008135905061074881610d6e565b92915050565b60006020828403121561076057600080fd5b600061076e848285016106b0565b91505092915050565b6000806040838503121561078a57600080fd5b60006107988582860161069b565b92505060206107a98582860161069b565b9150509250929050565b60008060008060008060008060006101008a8c0312156107d257600080fd5b60006107e08c828d0161069b565b99505060206107f18c828d0161069b565b98505060406108028c828d0161069b565b97505060606108138c828d0161069b565b96505060806108248c828d01610724565b95505060a06108358c828d01610724565b94505060c06108468c828d01610739565b93505060e08a013567ffffffffffffffff81111561086357600080fd5b61086f8c828d016106da565b92509250509295985092959850929598565b60006020828403121561089357600080fd5b60006108a1848285016106c5565b91505092915050565b6108b381610caf565b82525050565b6108c281610c57565b82525050565b6108d181610c69565b82525050565b60006108e38385610c35565b93506108f0838584610d09565b6108f983610d18565b840190509392505050565b61090d81610cc1565b82525050565b6000610920600f83610c46565b91507f494e56414c49445f4c31544f4b454e00000000000000000000000000000000006000830152602082019050919050565b6000610960601383610c46565b91507f414c52454144595f494e495449414c495a4544000000000000000000000000006000830152602082019050919050565b60006109a0600e83610c46565b91507f494e56414c49445f4f524947494e0000000000000000000000000000000000006000830152602082019050919050565b60006109e0601183610c46565b91507f494e56414c49445f524543495049454e540000000000000000000000000000006000830152602082019050919050565b6000610a20601083610c46565b91507f5452414e534645525f4641494c555245000000000000000000000000000000006000830152602082019050919050565b610a5c81610c95565b82525050565b610a6b81610c9f565b82525050565b6000602082019050610a8660008301846108b9565b92915050565b6000606082019050610aa160008301866108aa565b610aae60208301856108b9565b610abb6040830184610a53565b949350505050565b600060a082019050610ad860008301896108b9565b610ae560208301886108b9565b610af26040830187610a53565b610aff6060830186610a62565b8181036080830152610b128184866108d7565b9050979650505050505050565b6000602082019050610b3460008301846108c8565b92915050565b6000602082019050610b4f6000830184610904565b92915050565b60006020820190508181036000830152610b6e81610913565b9050919050565b60006020820190508181036000830152610b8e81610953565b9050919050565b60006020820190508181036000830152610bae81610993565b9050919050565b60006020820190508181036000830152610bce816109d3565b9050919050565b60006020820190508181036000830152610bee81610a13565b9050919050565b6000606082019050610c0a6000830187610a53565b610c176020830186610a53565b8181036040830152610c2a8184866108d7565b905095945050505050565b600082825260208201905092915050565b600082825260208201905092915050565b6000610c6282610c75565b9050919050565b60008115159050919050565b600073ffffffffffffffffffffffffffffffffffffffff82169050919050565b6000819050919050565b600063ffffffff82169050919050565b6000610cba82610ce5565b9050919050565b6000610ccc82610cd3565b9050919050565b6000610cde82610c75565b9050919050565b6000610cf082610cf7565b9050919050565b6000610d0282610c75565b9050919050565b82818337600083830152505050565b6000601f19601f8301169050919050565b610d3281610c57565b8114610d3d57600080fd5b50565b610d4981610c69565b8114610d5457600080fd5b50565b610d6081610c95565b8114610d6b57600080fd5b50565b610d7781610c9f565b8114610d8257600080fd5b5056fea2646970667358221220614d57de644e52722d2f568ed180579ef427a58f9a40eb81412b1d25b4905a0564736f6c63430007060033",
  "devdoc": {
    "kind": "dev",
    "methods": {},
    "version": 1
  },
  "userdoc": {
    "kind": "user",
    "methods": {},
    "version": 1
  },
  "storageLayout": {
    "storage": [
      {
        "astId": 8498,
        "contract": "contracts/L2BridgeWrapper.sol:L2BridgeWrapper",
        "label": "l2TokenBridge",
        "offset": 0,
        "slot": "0",
        "type": "t_contract(iOVM_L2ERC20Bridge)601"
      },
      {
        "astId": 8500,
        "contract": "contracts/L2BridgeWrapper.sol:L2BridgeWrapper",
        "label": "l1Oracle",
        "offset": 0,
        "slot": "1",
        "type": "t_address"
      },
      {
        "astId": 8502,
        "contract": "contracts/L2BridgeWrapper.sol:L2BridgeWrapper",
        "label": "initialized",
        "offset": 20,
        "slot": "1",
        "type": "t_bool"
      }
    ],
    "types": {
      "t_address": {
        "encoding": "inplace",
        "label": "address",
        "numberOfBytes": "20"
      },
      "t_bool": {
        "encoding": "inplace",
        "label": "bool",
        "numberOfBytes": "1"
      },
      "t_contract(iOVM_L2ERC20Bridge)601": {
        "encoding": "inplace",
        "label": "contract iOVM_L2ERC20Bridge",
        "numberOfBytes": "20"
      }
    }
  }
}