{
  "address": "0x3933AeFA82626aBC4F3b6c82A4fc93306690210B",
  "abi": [
    {
      "inputs": [
        {
          "internalType": "address",
          "name": "_claimableToken",
          "type": "address"
        },
        {
          "internalType": "address",
          "name": "_l1Oracle",
          "type": "address"
        }
      ],
      "stateMutability": "nonpayable",
      "type": "constructor"
    },
    {
      "inputs": [
        {
          "internalType": "uint256",
          "name": "tokenId",
          "type": "uint256"
        }
      ],
      "name": "buy",
      "outputs": [],
      "stateMutability": "nonpayable",
      "type": "function"
    },
    {
      "inputs": [],
      "name": "claimableToken",
      "outputs": [
        {
          "internalType": "contract L1ClaimableToken",
          "name": "",
          "type": "address"
        }
      ],
      "stateMutability": "view",
      "type": "function"
    },
    {
      "inputs": [],
      "name": "l1Oracle",
      "outputs": [
        {
          "internalType": "address",
          "name": "",
          "type": "address"
        }
      ],
      "stateMutability": "view",
      "type": "function"
    }
  ],
  "transactionHash": "0x38defa14ac33a8e999d805b2f9575ffe73c62193ae0a31dc78f5b084f459ce72",
  "args": [
    "0x3477402E901d57B1CD7e811CFb64F8aC81F23d83",
    "0x9017083413869FAAcC18Ce3b1d4a6017268afdC7"
  ],
  "solcInputHash": "98b7b2811de47d07a2bc1917f726f6f6",
  "bytecode": "0x608060405234801561001057600080fd5b50604051610ad8380380610ad8833981810160405281019061003291906100cf565b816000806101000a81548173ffffffffffffffffffffffffffffffffffffffff021916908373ffffffffffffffffffffffffffffffffffffffff16021790555080600160006101000a81548173ffffffffffffffffffffffffffffffffffffffff021916908373ffffffffffffffffffffffffffffffffffffffff1602179055505050610154565b6000815190506100c98161013d565b92915050565b600080604083850312156100e257600080fd5b60006100f0858286016100ba565b9250506020610101858286016100ba565b9150509250929050565b60006101168261011d565b9050919050565b600073ffffffffffffffffffffffffffffffffffffffff82169050919050565b6101468161010b565b811461015157600080fd5b50565b610975806101636000396000f3fe608060405234801561001057600080fd5b50600436106100415760003560e01c80630216342514610046578063d96a094a14610064578063f6d6d5aa14610080575b600080fd5b61004e61009e565b60405161005b9190610728565b60405180910390f35b61007e60048036038101906100799190610551565b6100c4565b005b610088610487565b60405161009591906107b1565b60405180910390f35b600160009054906101000a900473ffffffffffffffffffffffffffffffffffffffff1681565b60008060009054906101000a900473ffffffffffffffffffffffffffffffffffffffff1673ffffffffffffffffffffffffffffffffffffffff16636352211e836040518263ffffffff1660e01b8152600401610120919061082c565b60206040518083038186803b15801561013857600080fd5b505afa15801561014c573d6000803e3d6000fd5b505050506040513d601f19601f8201168201806040525081019061017091906104ff565b9050600160009054906101000a900473ffffffffffffffffffffffffffffffffffffffff1673ffffffffffffffffffffffffffffffffffffffff168173ffffffffffffffffffffffffffffffffffffffff1614610202576040517f08c379a00000000000000000000000000000000000000000000000000000000081526004016101f9906107ec565b60405180910390fd5b60008060008060008054906101000a900473ffffffffffffffffffffffffffffffffffffffff1673ffffffffffffffffffffffffffffffffffffffff16637c13774b876040518263ffffffff1660e01b8152600401610261919061082c565b6101006040518083038186803b15801561027a57600080fd5b505afa15801561028e573d6000803e3d6000fd5b505050506040513d601f19601f820116820180604052508101906102b2919061057a565b505095505094509450509350858414610300576040517f08c379a00000000000000000000000000000000000000000000000000000000081526004016102f79061080c565b60405180910390fd5b8173ffffffffffffffffffffffffffffffffffffffff166323b872dd3385846040518463ffffffff1660e01b815260040161033d93929190610743565b602060405180830381600087803b15801561035757600080fd5b505af115801561036b573d6000803e3d6000fd5b505050506040513d601f19601f8201168201806040525081019061038f9190610528565b6103ce576040517f08c379a00000000000000000000000000000000000000000000000000000000081526004016103c5906107cc565b60405180910390fd5b60008054906101000a900473ffffffffffffffffffffffffffffffffffffffff1673ffffffffffffffffffffffffffffffffffffffff166342842e0e600160009054906101000a900473ffffffffffffffffffffffffffffffffffffffff1633896040518463ffffffff1660e01b815260040161044d9392919061077a565b600060405180830381600087803b15801561046757600080fd5b505af115801561047b573d6000803e3d6000fd5b50505050505050505050565b60008054906101000a900473ffffffffffffffffffffffffffffffffffffffff1681565b6000815190506104ba816108fa565b92915050565b6000815190506104cf81610911565b92915050565b6000813590506104e481610928565b92915050565b6000815190506104f981610928565b92915050565b60006020828403121561051157600080fd5b600061051f848285016104ab565b91505092915050565b60006020828403121561053a57600080fd5b6000610548848285016104c0565b91505092915050565b60006020828403121561056357600080fd5b6000610571848285016104d5565b91505092915050565b600080600080600080600080610100898b03121561059757600080fd5b60006105a58b828c016104ea565b98505060206105b68b828c016104ea565b97505060406105c78b828c016104ab565b96505060606105d88b828c016104ab565b95505060806105e98b828c016104ab565b94505060a06105fa8b828c016104ea565b93505060c061060b8b828c016104ea565b92505060e061061c8b828c016104c0565b9150509295985092959890939650565b610635816108a0565b82525050565b61064481610858565b82525050565b610653816108b2565b82525050565b6000610666601083610847565b91507f5452414e534645525f4641494c555245000000000000000000000000000000006000830152602082019050919050565b60006106a6600d83610847565b91507f494e56414c49445f4f574e4552000000000000000000000000000000000000006000830152602082019050919050565b60006106e6600f83610847565b91507f494e56414c49445f544f4b454e494400000000000000000000000000000000006000830152602082019050919050565b61072281610896565b82525050565b600060208201905061073d600083018461063b565b92915050565b6000606082019050610758600083018661062c565b610765602083018561063b565b6107726040830184610719565b949350505050565b600060608201905061078f600083018661063b565b61079c602083018561062c565b6107a96040830184610719565b949350505050565b60006020820190506107c6600083018461064a565b92915050565b600060208201905081810360008301526107e581610659565b9050919050565b6000602082019050818103600083015261080581610699565b9050919050565b60006020820190508181036000830152610825816106d9565b9050919050565b60006020820190506108416000830184610719565b92915050565b600082825260208201905092915050565b600061086382610876565b9050919050565b60008115159050919050565b600073ffffffffffffffffffffffffffffffffffffffff82169050919050565b6000819050919050565b60006108ab826108d6565b9050919050565b60006108bd826108c4565b9050919050565b60006108cf82610876565b9050919050565b60006108e1826108e8565b9050919050565b60006108f382610876565b9050919050565b61090381610858565b811461090e57600080fd5b50565b61091a8161086a565b811461092557600080fd5b50565b61093181610896565b811461093c57600080fd5b5056fea2646970667358221220c56523cd4701445184b55d446fcc304c0a53ef89f84f24dff06e02ea3cfed30c64736f6c63430007060033",
  "devdoc": {
    "kind": "dev",
    "methods": {},
    "version": 1
  },
  "userdoc": {
    "kind": "user",
    "methods": {},
    "version": 1
  },
  "storageLayout": {
    "storage": [
      {
        "astId": 7799,
        "contract": "contracts/L1Auction.sol:L1Auction",
        "label": "claimableToken",
        "offset": 0,
        "slot": "0",
        "type": "t_contract(L1ClaimableToken)8032"
      },
      {
        "astId": 7801,
        "contract": "contracts/L1Auction.sol:L1Auction",
        "label": "l1Oracle",
        "offset": 0,
        "slot": "1",
        "type": "t_address"
      }
    ],
    "types": {
      "t_address": {
        "encoding": "inplace",
        "label": "address",
        "numberOfBytes": "20"
      },
      "t_contract(L1ClaimableToken)8032": {
        "encoding": "inplace",
        "label": "contract L1ClaimableToken",
        "numberOfBytes": "20"
      }
    }
  }
}