{
  "address": "0x3477402E901d57B1CD7e811CFb64F8aC81F23d83",
  "abi": [
    {
      "inputs": [
        {
          "internalType": "string",
          "name": "name",
          "type": "string"
        },
        {
          "internalType": "string",
          "name": "symbol",
          "type": "string"
        }
      ],
      "stateMutability": "nonpayable",
      "type": "constructor"
    },
    {
      "anonymous": false,
      "inputs": [
        {
          "indexed": true,
          "internalType": "address",
          "name": "owner",
          "type": "address"
        },
        {
          "indexed": true,
          "internalType": "address",
          "name": "approved",
          "type": "address"
        },
        {
          "indexed": true,
          "internalType": "uint256",
          "name": "tokenId",
          "type": "uint256"
        }
      ],
      "name": "Approval",
      "type": "event"
    },
    {
      "anonymous": false,
      "inputs": [
        {
          "indexed": true,
          "internalType": "address",
          "name": "owner",
          "type": "address"
        },
        {
          "indexed": true,
          "internalType": "address",
          "name": "operator",
          "type": "address"
        },
        {
          "indexed": false,
          "internalType": "bool",
          "name": "approved",
          "type": "bool"
        }
      ],
      "name": "ApprovalForAll",
      "type": "event"
    },
    {
      "anonymous": false,
      "inputs": [
        {
          "indexed": true,
          "internalType": "uint256",
          "name": "tokenId",
          "type": "uint256"
        },
        {
          "indexed": true,
          "internalType": "uint256",
          "name": "l2TxIndex",
          "type": "uint256"
        }
      ],
      "name": "Minted",
      "type": "event"
    },
    {
      "anonymous": false,
      "inputs": [
        {
          "indexed": true,
          "internalType": "address",
          "name": "from",
          "type": "address"
        },
        {
          "indexed": true,
          "internalType": "address",
          "name": "to",
          "type": "address"
        },
        {
          "indexed": true,
          "internalType": "uint256",
          "name": "tokenId",
          "type": "uint256"
        }
      ],
      "name": "Transfer",
      "type": "event"
    },
    {
      "inputs": [
        {
          "internalType": "address",
          "name": "to",
          "type": "address"
        },
        {
          "internalType": "uint256",
          "name": "tokenId",
          "type": "uint256"
        }
      ],
      "name": "approve",
      "outputs": [],
      "stateMutability": "nonpayable",
      "type": "function"
    },
    {
      "inputs": [
        {
          "internalType": "address",
          "name": "owner",
          "type": "address"
        }
      ],
      "name": "balanceOf",
      "outputs": [
        {
          "internalType": "uint256",
          "name": "",
          "type": "uint256"
        }
      ],
      "stateMutability": "view",
      "type": "function"
    },
    {
      "inputs": [],
      "name": "baseURI",
      "outputs": [
        {
          "internalType": "string",
          "name": "",
          "type": "string"
        }
      ],
      "stateMutability": "view",
      "type": "function"
    },
    {
      "inputs": [
        {
          "internalType": "uint256",
          "name": "tokenId",
          "type": "uint256"
        }
      ],
      "name": "claim",
      "outputs": [],
      "stateMutability": "nonpayable",
      "type": "function"
    },
    {
      "inputs": [
        {
          "internalType": "uint256",
          "name": "tokenId",
          "type": "uint256"
        }
      ],
      "name": "getApproved",
      "outputs": [
        {
          "internalType": "address",
          "name": "",
          "type": "address"
        }
      ],
      "stateMutability": "view",
      "type": "function"
    },
    {
      "inputs": [
        {
          "internalType": "address",
          "name": "owner",
          "type": "address"
        },
        {
          "internalType": "address",
          "name": "operator",
          "type": "address"
        }
      ],
      "name": "isApprovedForAll",
      "outputs": [
        {
          "internalType": "bool",
          "name": "",
          "type": "bool"
        }
      ],
      "stateMutability": "view",
      "type": "function"
    },
    {
      "inputs": [
        {
          "internalType": "uint256",
          "name": "_tokenId",
          "type": "uint256"
        },
        {
          "internalType": "uint256",
          "name": "_transactionIndex",
          "type": "uint256"
        },
        {
          "internalType": "address",
          "name": "_origin",
          "type": "address"
        },
        {
          "internalType": "address",
          "name": "_l1Token",
          "type": "address"
        },
        {
          "internalType": "address",
          "name": "_l2Token",
          "type": "address"
        },
        {
          "internalType": "uint256",
          "name": "_amount",
          "type": "uint256"
        },
        {
          "internalType": "uint256",
          "name": "_fee",
          "type": "uint256"
        }
      ],
      "name": "mint",
      "outputs": [],
      "stateMutability": "nonpayable",
      "type": "function"
    },
    {
      "inputs": [],
      "name": "name",
      "outputs": [
        {
          "internalType": "string",
          "name": "",
          "type": "string"
        }
      ],
      "stateMutability": "view",
      "type": "function"
    },
    {
      "inputs": [],
      "name": "owner",
      "outputs": [
        {
          "internalType": "address",
          "name": "",
          "type": "address"
        }
      ],
      "stateMutability": "view",
      "type": "function"
    },
    {
      "inputs": [
        {
          "internalType": "uint256",
          "name": "tokenId",
          "type": "uint256"
        }
      ],
      "name": "ownerOf",
      "outputs": [
        {
          "internalType": "address",
          "name": "",
          "type": "address"
        }
      ],
      "stateMutability": "view",
      "type": "function"
    },
    {
      "inputs": [
        {
          "internalType": "address",
          "name": "from",
          "type": "address"
        },
        {
          "internalType": "address",
          "name": "to",
          "type": "address"
        },
        {
          "internalType": "uint256",
          "name": "tokenId",
          "type": "uint256"
        }
      ],
      "name": "safeTransferFrom",
      "outputs": [],
      "stateMutability": "nonpayable",
      "type": "function"
    },
    {
      "inputs": [
        {
          "internalType": "address",
          "name": "from",
          "type": "address"
        },
        {
          "internalType": "address",
          "name": "to",
          "type": "address"
        },
        {
          "internalType": "uint256",
          "name": "tokenId",
          "type": "uint256"
        },
        {
          "internalType": "bytes",
          "name": "_data",
          "type": "bytes"
        }
      ],
      "name": "safeTransferFrom",
      "outputs": [],
      "stateMutability": "nonpayable",
      "type": "function"
    },
    {
      "inputs": [
        {
          "internalType": "address",
          "name": "operator",
          "type": "address"
        },
        {
          "internalType": "bool",
          "name": "approved",
          "type": "bool"
        }
      ],
      "name": "setApprovalForAll",
      "outputs": [],
      "stateMutability": "nonpayable",
      "type": "function"
    },
    {
      "inputs": [
        {
          "internalType": "bytes4",
          "name": "interfaceId",
          "type": "bytes4"
        }
      ],
      "name": "supportsInterface",
      "outputs": [
        {
          "internalType": "bool",
          "name": "",
          "type": "bool"
        }
      ],
      "stateMutability": "view",
      "type": "function"
    },
    {
      "inputs": [],
      "name": "symbol",
      "outputs": [
        {
          "internalType": "string",
          "name": "",
          "type": "string"
        }
      ],
      "stateMutability": "view",
      "type": "function"
    },
    {
      "inputs": [
        {
          "internalType": "uint256",
          "name": "index",
          "type": "uint256"
        }
      ],
      "name": "tokenByIndex",
      "outputs": [
        {
          "internalType": "uint256",
          "name": "",
          "type": "uint256"
        }
      ],
      "stateMutability": "view",
      "type": "function"
    },
    {
      "inputs": [
        {
          "internalType": "uint256",
          "name": "",
          "type": "uint256"
        }
      ],
      "name": "tokenInfos",
      "outputs": [
        {
          "internalType": "uint256",
          "name": "tokenId",
          "type": "uint256"
        },
        {
          "internalType": "uint256",
          "name": "transactionIndex",
          "type": "uint256"
        },
        {
          "internalType": "address",
          "name": "origin",
          "type": "address"
        },
        {
          "internalType": "address",
          "name": "l1Token",
          "type": "address"
        },
        {
          "internalType": "address",
          "name": "l2Token",
          "type": "address"
        },
        {
          "internalType": "uint256",
          "name": "amount",
          "type": "uint256"
        },
        {
          "internalType": "uint256",
          "name": "fee",
          "type": "uint256"
        },
        {
          "internalType": "bool",
          "name": "claimed",
          "type": "bool"
        }
      ],
      "stateMutability": "view",
      "type": "function"
    },
    {
      "inputs": [
        {
          "internalType": "address",
          "name": "owner",
          "type": "address"
        },
        {
          "internalType": "uint256",
          "name": "index",
          "type": "uint256"
        }
      ],
      "name": "tokenOfOwnerByIndex",
      "outputs": [
        {
          "internalType": "uint256",
          "name": "",
          "type": "uint256"
        }
      ],
      "stateMutability": "view",
      "type": "function"
    },
    {
      "inputs": [
        {
          "internalType": "uint256",
          "name": "tokenId",
          "type": "uint256"
        }
      ],
      "name": "tokenURI",
      "outputs": [
        {
          "internalType": "string",
          "name": "",
          "type": "string"
        }
      ],
      "stateMutability": "view",
      "type": "function"
    },
    {
      "inputs": [],
      "name": "totalSupply",
      "outputs": [
        {
          "internalType": "uint256",
          "name": "",
          "type": "uint256"
        }
      ],
      "stateMutability": "view",
      "type": "function"
    },
    {
      "inputs": [
        {
          "internalType": "address",
          "name": "from",
          "type": "address"
        },
        {
          "internalType": "address",
          "name": "to",
          "type": "address"
        },
        {
          "internalType": "uint256",
          "name": "tokenId",
          "type": "uint256"
        }
      ],
      "name": "transferFrom",
      "outputs": [],
      "stateMutability": "nonpayable",
      "type": "function"
    },
    {
      "inputs": [
        {
          "internalType": "address",
          "name": "newOwner",
          "type": "address"
        }
      ],
      "name": "transferOwnership",
      "outputs": [],
      "stateMutability": "nonpayable",
      "type": "function"
    }
  ],
  "transactionHash": "0xde248a764f77caa1572d2bc513ba440bcf80bc48dc7bef26068c3ad4bee3de9a",
  "args": [
    "L1 Claimable Token",
    "L1CTOKEN"
  ],
  "solcInputHash": "98b7b2811de47d07a2bc1917f726f6f6",
  "bytecode": "0x60806040523480156200001157600080fd5b506040516200359538038062003595833981810160405281019062000037919062000347565b8181620000516301ffc9a760e01b6200011660201b60201c565b8160069080519060200190620000699291906200021f565b508060079080519060200190620000829291906200021f565b506200009b6380ac58cd60e01b6200011660201b60201c565b620000b3635b5e139f60e01b6200011660201b60201c565b620000cb63780e9d6360e01b6200011660201b60201c565b505033600b60006101000a81548173ffffffffffffffffffffffffffffffffffffffff021916908373ffffffffffffffffffffffffffffffffffffffff160217905550505062000459565b63ffffffff60e01b817bffffffffffffffffffffffffffffffffffffffffffffffffffffffff19161415620001b3576040517f08c379a000000000000000000000000000000000000000000000000000000000815260040180806020018281038252601c8152602001807f4552433136353a20696e76616c696420696e746572666163652069640000000081525060200191505060405180910390fd5b6001600080837bffffffffffffffffffffffffffffffffffffffffffffffffffffffff19167bffffffffffffffffffffffffffffffffffffffffffffffffffffffff1916815260200190815260200160002060006101000a81548160ff02191690831515021790555050565b828054600181600116156101000203166002900490600052602060002090601f016020900481019282620002575760008555620002a3565b82601f106200027257805160ff1916838001178555620002a3565b82800160010185558215620002a3579182015b82811115620002a257825182559160200191906001019062000285565b5b509050620002b29190620002b6565b5090565b5b80821115620002d1576000816000905550600101620002b7565b5090565b6000620002ec620002e684620003ee565b620003ba565b9050828152602081018484840111156200030557600080fd5b6200031284828562000421565b509392505050565b600082601f8301126200032c57600080fd5b81516200033e848260208601620002d5565b91505092915050565b600080604083850312156200035b57600080fd5b600083015167ffffffffffffffff8111156200037657600080fd5b62000384858286016200031a565b925050602083015167ffffffffffffffff811115620003a257600080fd5b620003b0858286016200031a565b9150509250929050565b6000604051905081810181811067ffffffffffffffff82111715620003e457620003e362000457565b5b8060405250919050565b600067ffffffffffffffff8211156200040c576200040b62000457565b5b601f19601f8301169050602081019050919050565b60005b838110156200044157808201518184015260208101905062000424565b8381111562000451576000848401525b50505050565bfe5b61312c80620004696000396000f3fe608060405234801561001057600080fd5b50600436106101425760003560e01c80636c0360eb116100b8578063a22cb4651161007c578063a22cb465146103a4578063b88d4fde146103c0578063c87b56dd146103dc578063cf7556891461040c578063e985e9c514610428578063f2fde38b1461045857610142565b80636c0360eb146102e357806370a08231146103015780637c13774b146103315780638da5cb5b1461036857806395d89b411461038657610142565b806323b872dd1161010a57806323b872dd146101ff5780632f745c591461021b578063379607f51461024b57806342842e0e146102675780634f6ccce7146102835780636352211e146102b357610142565b806301ffc9a71461014757806306fdde0314610177578063081812fc14610195578063095ea7b3146101c557806318160ddd146101e1575b600080fd5b610161600480360381019061015c9190612a00565b610474565b60405161016e9190612bf1565b60405180910390f35b61017f6104db565b60405161018c9190612c0c565b60405180910390f35b6101af60048036038101906101aa9190612a29565b61057d565b6040516101bc9190612bd6565b60405180910390f35b6101df60048036038101906101da91906129c4565b610618565b005b6101e961075c565b6040516101f69190612c6e565b60405180910390f35b610219600480360381019061021491906128be565b61076d565b005b610235600480360381019061023091906129c4565b6107e3565b6040516102429190612c6e565b60405180910390f35b61026560048036038101906102609190612a29565b61083e565b005b610281600480360381019061027c91906128be565b610906565b005b61029d60048036038101906102989190612a29565b610926565b6040516102aa9190612c6e565b60405180910390f35b6102cd60048036038101906102c89190612a29565b610949565b6040516102da9190612bd6565b60405180910390f35b6102eb610980565b6040516102f89190612c0c565b60405180910390f35b61031b60048036038101906103169190612859565b610a22565b6040516103289190612c6e565b60405180910390f35b61034b60048036038101906103469190612a29565b610af7565b60405161035f989796959493929190612c89565b60405180910390f35b610370610bac565b60405161037d9190612bd6565b60405180910390f35b61038e610bd2565b60405161039b9190612c0c565b60405180910390f35b6103be60048036038101906103b99190612988565b610c74565b005b6103da60048036038101906103d5919061290d565b610e2a565b005b6103f660048036038101906103f19190612a29565b610ea2565b6040516104039190612c0c565b60405180910390f35b61042660048036038101906104219190612a52565b611173565b005b610442600480360381019061043d9190612882565b6113f6565b60405161044f9190612bf1565b60405180910390f35b610472600480360381019061046d9190612859565b61148a565b005b6000806000837bffffffffffffffffffffffffffffffffffffffffffffffffffffffff19167bffffffffffffffffffffffffffffffffffffffffffffffffffffffff1916815260200190815260200160002060009054906101000a900460ff169050919050565b606060068054600181600116156101000203166002900480601f0160208091040260200160405190810160405280929190818152602001828054600181600116156101000203166002900480156105735780601f1061054857610100808354040283529160200191610573565b820191906000526020600020905b81548152906001019060200180831161055657829003601f168201915b5050505050905090565b60006105888261155e565b6105dd576040517f08c379a000000000000000000000000000000000000000000000000000000000815260040180806020018281038252602c815260200180613021602c913960400191505060405180910390fd5b6004600083815260200190815260200160002060009054906101000a900473ffffffffffffffffffffffffffffffffffffffff169050919050565b600061062382610949565b90508073ffffffffffffffffffffffffffffffffffffffff168373ffffffffffffffffffffffffffffffffffffffff1614156106aa576040517f08c379a00000000000000000000000000000000000000000000000000000000081526004018080602001828103825260218152602001806130a56021913960400191505060405180910390fd5b8073ffffffffffffffffffffffffffffffffffffffff166106c961157b565b73ffffffffffffffffffffffffffffffffffffffff1614806106f857506106f7816106f261157b565b6113f6565b5b61074d576040517f08c379a0000000000000000000000000000000000000000000000000000000008152600401808060200182810382526038815260200180612f746038913960400191505060405180910390fd5b6107578383611583565b505050565b6000610768600261163c565b905090565b61077e61077861157b565b82611651565b6107d3576040517f08c379a00000000000000000000000000000000000000000000000000000000081526004018080602001828103825260318152602001806130c66031913960400191505060405180910390fd5b6107de838383611745565b505050565b600061083682600160008673ffffffffffffffffffffffffffffffffffffffff1673ffffffffffffffffffffffffffffffffffffffff16815260200190815260200160002061198890919063ffffffff16565b905092915050565b600b60009054906101000a900473ffffffffffffffffffffffffffffffffffffffff1673ffffffffffffffffffffffffffffffffffffffff163373ffffffffffffffffffffffffffffffffffffffff16146108ce576040517f08c379a00000000000000000000000000000000000000000000000000000000081526004016108c590612c2e565b60405180910390fd5b6000600a6000838152602001908152602001600020905060018160070160006101000a81548160ff0219169083151502179055505050565b61092183838360405180602001604052806000815250610e2a565b505050565b60008061093d8360026119a290919063ffffffff16565b50905080915050919050565b600061097982604051806060016040528060298152602001612fd66029913960026119ce9092919063ffffffff16565b9050919050565b606060098054600181600116156101000203166002900480601f016020809104026020016040519081016040528092919081815260200182805460018160011615610100020316600290048015610a185780601f106109ed57610100808354040283529160200191610a18565b820191906000526020600020905b8154815290600101906020018083116109fb57829003601f168201915b5050505050905090565b60008073ffffffffffffffffffffffffffffffffffffffff168273ffffffffffffffffffffffffffffffffffffffff161415610aa9576040517f08c379a000000000000000000000000000000000000000000000000000000000815260040180806020018281038252602a815260200180612fac602a913960400191505060405180910390fd5b610af0600160008473ffffffffffffffffffffffffffffffffffffffff1673ffffffffffffffffffffffffffffffffffffffff1681526020019081526020016000206119ed565b9050919050565b600a6020528060005260406000206000915090508060000154908060010154908060020160009054906101000a900473ffffffffffffffffffffffffffffffffffffffff16908060030160009054906101000a900473ffffffffffffffffffffffffffffffffffffffff16908060040160009054906101000a900473ffffffffffffffffffffffffffffffffffffffff16908060050154908060060154908060070160009054906101000a900460ff16905088565b600b60009054906101000a900473ffffffffffffffffffffffffffffffffffffffff1681565b606060078054600181600116156101000203166002900480601f016020809104026020016040519081016040528092919081815260200182805460018160011615610100020316600290048015610c6a5780601f10610c3f57610100808354040283529160200191610c6a565b820191906000526020600020905b815481529060010190602001808311610c4d57829003601f168201915b5050505050905090565b610c7c61157b565b73ffffffffffffffffffffffffffffffffffffffff168273ffffffffffffffffffffffffffffffffffffffff161415610d1d576040517f08c379a00000000000000000000000000000000000000000000000000000000081526004018080602001828103825260198152602001807f4552433732313a20617070726f766520746f2063616c6c65720000000000000081525060200191505060405180910390fd5b8060056000610d2a61157b565b73ffffffffffffffffffffffffffffffffffffffff1673ffffffffffffffffffffffffffffffffffffffff16815260200190815260200160002060008473ffffffffffffffffffffffffffffffffffffffff1673ffffffffffffffffffffffffffffffffffffffff16815260200190815260200160002060006101000a81548160ff0219169083151502179055508173ffffffffffffffffffffffffffffffffffffffff16610dd761157b565b73ffffffffffffffffffffffffffffffffffffffff167f17307eab39ab6107e8899845ad3d59bd9653f200f220920489ca2b5937696c318360405180821515815260200191505060405180910390a35050565b610e3b610e3561157b565b83611651565b610e90576040517f08c379a00000000000000000000000000000000000000000000000000000000081526004018080602001828103825260318152602001806130c66031913960400191505060405180910390fd5b610e9c84848484611a02565b50505050565b6060610ead8261155e565b610f02576040517f08c379a000000000000000000000000000000000000000000000000000000000815260040180806020018281038252602f815260200180613076602f913960400191505060405180910390fd5b6000600860008481526020019081526020016000208054600181600116156101000203166002900480601f016020809104026020016040519081016040528092919081815260200182805460018160011615610100020316600290048015610fab5780601f10610f8057610100808354040283529160200191610fab565b820191906000526020600020905b815481529060010190602001808311610f8e57829003601f168201915b505050505090506000610fbc610980565b9050600081511415610fd257819250505061116e565b6000825111156110a35780826040516020018083805190602001908083835b602083106110145780518252602082019150602081019050602083039250610ff1565b6001836020036101000a03801982511681845116808217855250505050505090500182805190602001908083835b602083106110655780518252602082019150602081019050602083039250611042565b6001836020036101000a038019825116818451168082178552505050505050905001925050506040516020818303038152906040529250505061116e565b806110ad85611a74565b6040516020018083805190602001908083835b602083106110e357805182526020820191506020810190506020830392506110c0565b6001836020036101000a03801982511681845116808217855250505050505090500182805190602001908083835b602083106111345780518252602082019150602081019050602083039250611111565b6001836020036101000a03801982511681845116808217855250505050505090500192505050604051602081830303815290604052925050505b919050565b600b60009054906101000a900473ffffffffffffffffffffffffffffffffffffffff1673ffffffffffffffffffffffffffffffffffffffff163373ffffffffffffffffffffffffffffffffffffffff1614611203576040517f08c379a00000000000000000000000000000000000000000000000000000000081526004016111fa90612c4e565b60405180910390fd5b61120d3388611bbb565b6040518061010001604052808881526020018781526020018673ffffffffffffffffffffffffffffffffffffffff1681526020018573ffffffffffffffffffffffffffffffffffffffff1681526020018473ffffffffffffffffffffffffffffffffffffffff16815260200183815260200182815260200160001515815250600a6000898152602001908152602001600020600082015181600001556020820151816001015560408201518160020160006101000a81548173ffffffffffffffffffffffffffffffffffffffff021916908373ffffffffffffffffffffffffffffffffffffffff16021790555060608201518160030160006101000a81548173ffffffffffffffffffffffffffffffffffffffff021916908373ffffffffffffffffffffffffffffffffffffffff16021790555060808201518160040160006101000a81548173ffffffffffffffffffffffffffffffffffffffff021916908373ffffffffffffffffffffffffffffffffffffffff16021790555060a0820151816005015560c0820151816006015560e08201518160070160006101000a81548160ff02191690831515021790555090505085877f8a9dcf4e150b1153011b29fec302d5be0c13e84fa8f56ab78587f778a32a90dd60405160405180910390a350505050505050565b6000600560008473ffffffffffffffffffffffffffffffffffffffff1673ffffffffffffffffffffffffffffffffffffffff16815260200190815260200160002060008373ffffffffffffffffffffffffffffffffffffffff1673ffffffffffffffffffffffffffffffffffffffff16815260200190815260200160002060009054906101000a900460ff16905092915050565b600b60009054906101000a900473ffffffffffffffffffffffffffffffffffffffff1673ffffffffffffffffffffffffffffffffffffffff163373ffffffffffffffffffffffffffffffffffffffff161461151a576040517f08c379a000000000000000000000000000000000000000000000000000000000815260040161151190612c4e565b60405180910390fd5b80600b60006101000a81548173ffffffffffffffffffffffffffffffffffffffff021916908373ffffffffffffffffffffffffffffffffffffffff16021790555050565b6000611574826002611daf90919063ffffffff16565b9050919050565b600033905090565b816004600083815260200190815260200160002060006101000a81548173ffffffffffffffffffffffffffffffffffffffff021916908373ffffffffffffffffffffffffffffffffffffffff160217905550808273ffffffffffffffffffffffffffffffffffffffff166115f683610949565b73ffffffffffffffffffffffffffffffffffffffff167f8c5be1e5ebec7d5bd14f71427d1e84f3dd0314c0f7b2291e5b200ac8c7c3b92560405160405180910390a45050565b600061164a82600001611dc9565b9050919050565b600061165c8261155e565b6116b1576040517f08c379a000000000000000000000000000000000000000000000000000000000815260040180806020018281038252602c815260200180612f48602c913960400191505060405180910390fd5b60006116bc83610949565b90508073ffffffffffffffffffffffffffffffffffffffff168473ffffffffffffffffffffffffffffffffffffffff16148061172b57508373ffffffffffffffffffffffffffffffffffffffff166117138461057d565b73ffffffffffffffffffffffffffffffffffffffff16145b8061173c575061173b81856113f6565b5b91505092915050565b8273ffffffffffffffffffffffffffffffffffffffff1661176582610949565b73ffffffffffffffffffffffffffffffffffffffff16146117d1576040517f08c379a000000000000000000000000000000000000000000000000000000000815260040180806020018281038252602981526020018061304d6029913960400191505060405180910390fd5b600073ffffffffffffffffffffffffffffffffffffffff168273ffffffffffffffffffffffffffffffffffffffff161415611857576040517f08c379a0000000000000000000000000000000000000000000000000000000008152600401808060200182810382526024815260200180612efe6024913960400191505060405180910390fd5b611862838383611dda565b61186d600082611583565b6118be81600160008673ffffffffffffffffffffffffffffffffffffffff1673ffffffffffffffffffffffffffffffffffffffff168152602001908152602001600020611ddf90919063ffffffff16565b5061191081600160008573ffffffffffffffffffffffffffffffffffffffff1673ffffffffffffffffffffffffffffffffffffffff168152602001908152602001600020611df990919063ffffffff16565b5061192781836002611e139092919063ffffffff16565b50808273ffffffffffffffffffffffffffffffffffffffff168473ffffffffffffffffffffffffffffffffffffffff167fddf252ad1be2c89b69c2b068fc378daa952ba7f163c4a11628f55a4df523b3ef60405160405180910390a4505050565b60006119978360000183611e48565b60001c905092915050565b6000806000806119b58660000186611ecb565b915091508160001c8160001c9350935050509250929050565b60006119e1846000018460001b84611f64565b60001c90509392505050565b60006119fb8260000161205a565b9050919050565b611a0d848484611745565b611a198484848461206b565b611a6e576040517f08c379a0000000000000000000000000000000000000000000000000000000008152600401808060200182810382526032815260200180612ecc6032913960400191505060405180910390fd5b50505050565b60606000821415611abc576040518060400160405280600181526020017f30000000000000000000000000000000000000000000000000000000000000008152509050611bb6565b600082905060005b60008214611ae6578080600101915050600a8281611ade57fe5b049150611ac4565b60008167ffffffffffffffff81118015611aff57600080fd5b506040519080825280601f01601f191660200182016040528015611b325781602001600182028036833780820191505090505b50905060006001830390508593505b60008414611bae57600a8481611b5357fe5b0660300160f81b82828060019003935081518110611b6d57fe5b60200101907effffffffffffffffffffffffffffffffffffffffffffffffffffffffffffff1916908160001a905350600a8481611ba657fe5b049350611b41565b819450505050505b919050565b600073ffffffffffffffffffffffffffffffffffffffff168273ffffffffffffffffffffffffffffffffffffffff161415611c5e576040517f08c379a00000000000000000000000000000000000000000000000000000000081526004018080602001828103825260208152602001807f4552433732313a206d696e7420746f20746865207a65726f206164647265737381525060200191505060405180910390fd5b611c678161155e565b15611cda576040517f08c379a000000000000000000000000000000000000000000000000000000000815260040180806020018281038252601c8152602001807f4552433732313a20746f6b656e20616c7265616479206d696e7465640000000081525060200191505060405180910390fd5b611ce660008383611dda565b611d3781600160008573ffffffffffffffffffffffffffffffffffffffff1673ffffffffffffffffffffffffffffffffffffffff168152602001908152602001600020611df990919063ffffffff16565b50611d4e81836002611e139092919063ffffffff16565b50808273ffffffffffffffffffffffffffffffffffffffff16600073ffffffffffffffffffffffffffffffffffffffff167fddf252ad1be2c89b69c2b068fc378daa952ba7f163c4a11628f55a4df523b3ef60405160405180910390a45050565b6000611dc1836000018360001b612284565b905092915050565b600081600001805490509050919050565b505050565b6000611df1836000018360001b6122a7565b905092915050565b6000611e0b836000018360001b61238f565b905092915050565b6000611e3f846000018460001b8473ffffffffffffffffffffffffffffffffffffffff1660001b6123ff565b90509392505050565b600081836000018054905011611ea9576040517f08c379a0000000000000000000000000000000000000000000000000000000008152600401808060200182810382526022815260200180612eaa6022913960400191505060405180910390fd5b826000018281548110611eb857fe5b9060005260206000200154905092915050565b60008082846000018054905011611f2d576040517f08c379a0000000000000000000000000000000000000000000000000000000008152600401808060200182810382526022815260200180612fff6022913960400191505060405180910390fd5b6000846000018481548110611f3e57fe5b906000526020600020906002020190508060000154816001015492509250509250929050565b6000808460010160008581526020019081526020016000205490506000811415839061202b576040517f08c379a00000000000000000000000000000000000000000000000000000000081526004018080602001828103825283818151815260200191508051906020019080838360005b83811015611ff0578082015181840152602081019050611fd5565b50505050905090810190601f16801561201d5780820380516001836020036101000a031916815260200191505b509250505060405180910390fd5b5084600001600182038154811061203e57fe5b9060005260206000209060020201600101549150509392505050565b600081600001805490509050919050565b600061208c8473ffffffffffffffffffffffffffffffffffffffff166124db565b612099576001905061227c565b600061220363150b7a0260e01b6120ae61157b565b888787604051602401808573ffffffffffffffffffffffffffffffffffffffff1681526020018473ffffffffffffffffffffffffffffffffffffffff16815260200183815260200180602001828103825283818151815260200191508051906020019080838360005b83811015612132578082015181840152602081019050612117565b50505050905090810190601f16801561215f5780820380516001836020036101000a031916815260200191505b5095505050505050604051602081830303815290604052907bffffffffffffffffffffffffffffffffffffffffffffffffffffffff19166020820180517bffffffffffffffffffffffffffffffffffffffffffffffffffffffff8381831617835250505050604051806060016040528060328152602001612ecc603291398773ffffffffffffffffffffffffffffffffffffffff166124ee9092919063ffffffff16565b9050600081806020019051602081101561221c57600080fd5b8101908080519060200190929190505050905063150b7a0260e01b7bffffffffffffffffffffffffffffffffffffffffffffffffffffffff1916817bffffffffffffffffffffffffffffffffffffffffffffffffffffffff191614925050505b949350505050565b600080836001016000848152602001908152602001600020541415905092915050565b6000808360010160008481526020019081526020016000205490506000811461238357600060018203905060006001866000018054905003905060008660000182815481106122f257fe5b906000526020600020015490508087600001848154811061230f57fe5b906000526020600020018190555060018301876001016000838152602001908152602001600020819055508660000180548061234757fe5b60019003818190600052602060002001600090559055866001016000878152602001908152602001600020600090556001945050505050612389565b60009150505b92915050565b600061239b8383612506565b6123f45782600001829080600181540180825580915050600190039060005260206000200160009091909190915055826000018054905083600101600084815260200190815260200160002081905550600190506123f9565b600090505b92915050565b60008084600101600085815260200190815260200160002054905060008114156124a6578460000160405180604001604052808681526020018581525090806001815401808255809150506001900390600052602060002090600202016000909190919091506000820151816000015560208201518160010155505084600001805490508560010160008681526020019081526020016000208190555060019150506124d4565b828560000160018303815481106124b957fe5b90600052602060002090600202016001018190555060009150505b9392505050565b600080823b905060008111915050919050565b60606124fd8484600085612529565b90509392505050565b600080836001016000848152602001908152602001600020541415905092915050565b606082471015612584576040517f08c379a0000000000000000000000000000000000000000000000000000000008152600401808060200182810382526026815260200180612f226026913960400191505060405180910390fd5b61258d856124db565b6125ff576040517f08c379a000000000000000000000000000000000000000000000000000000000815260040180806020018281038252601d8152602001807f416464726573733a2063616c6c20746f206e6f6e2d636f6e747261637400000081525060200191505060405180910390fd5b6000808673ffffffffffffffffffffffffffffffffffffffff1685876040518082805190602001908083835b6020831061264e578051825260208201915060208101905060208303925061262b565b6001836020036101000a03801982511681845116808217855250505050505090500191505060006040518083038185875af1925050503d80600081146126b0576040519150601f19603f3d011682016040523d82523d6000602084013e6126b5565b606091505b50915091506126c58282866126d1565b92505050949350505050565b606083156126e157829050612796565b6000835111156126f45782518084602001fd5b816040517f08c379a00000000000000000000000000000000000000000000000000000000081526004018080602001828103825283818151815260200191508051906020019080838360005b8381101561275b578082015181840152602081019050612740565b50505050905090810190601f1680156127885780820380516001836020036101000a031916815260200191505b509250505060405180910390fd5b9392505050565b60006127b06127ab84612d38565b612d07565b9050828152602081018484840111156127c857600080fd5b6127d3848285612df8565b509392505050565b6000813590506127ea81612e4d565b92915050565b6000813590506127ff81612e64565b92915050565b60008135905061281481612e7b565b92915050565b600082601f83011261282b57600080fd5b813561283b84826020860161279d565b91505092915050565b60008135905061285381612e92565b92915050565b60006020828403121561286b57600080fd5b6000612879848285016127db565b91505092915050565b6000806040838503121561289557600080fd5b60006128a3858286016127db565b92505060206128b4858286016127db565b9150509250929050565b6000806000606084860312156128d357600080fd5b60006128e1868287016127db565b93505060206128f2868287016127db565b925050604061290386828701612844565b9150509250925092565b6000806000806080858703121561292357600080fd5b6000612931878288016127db565b9450506020612942878288016127db565b935050604061295387828801612844565b925050606085013567ffffffffffffffff81111561297057600080fd5b61297c8782880161281a565b91505092959194509250565b6000806040838503121561299b57600080fd5b60006129a9858286016127db565b92505060206129ba858286016127f0565b9150509250929050565b600080604083850312156129d757600080fd5b60006129e5858286016127db565b92505060206129f685828601612844565b9150509250929050565b600060208284031215612a1257600080fd5b6000612a2084828501612805565b91505092915050565b600060208284031215612a3b57600080fd5b6000612a4984828501612844565b91505092915050565b600080600080600080600060e0888a031215612a6d57600080fd5b6000612a7b8a828b01612844565b9750506020612a8c8a828b01612844565b9650506040612a9d8a828b016127db565b9550506060612aae8a828b016127db565b9450506080612abf8a828b016127db565b93505060a0612ad08a828b01612844565b92505060c0612ae18a828b01612844565b91505092959891949750929550565b612af981612d84565b82525050565b612b0881612d96565b82525050565b6000612b1982612d68565b612b238185612d73565b9350612b33818560208601612e07565b612b3c81612e3c565b840191505092915050565b6000612b54600c83612d73565b91507f4e4f5f4f574e45525348495000000000000000000000000000000000000000006000830152602082019050919050565b6000612b94600983612d73565b91507f4e4f545f4f574e455200000000000000000000000000000000000000000000006000830152602082019050919050565b612bd081612dee565b82525050565b6000602082019050612beb6000830184612af0565b92915050565b6000602082019050612c066000830184612aff565b92915050565b60006020820190508181036000830152612c268184612b0e565b905092915050565b60006020820190508181036000830152612c4781612b47565b9050919050565b60006020820190508181036000830152612c6781612b87565b9050919050565b6000602082019050612c836000830184612bc7565b92915050565b600061010082019050612c9f600083018b612bc7565b612cac602083018a612bc7565b612cb96040830189612af0565b612cc66060830188612af0565b612cd36080830187612af0565b612ce060a0830186612bc7565b612ced60c0830185612bc7565b612cfa60e0830184612aff565b9998505050505050505050565b6000604051905081810181811067ffffffffffffffff82111715612d2e57612d2d612e3a565b5b8060405250919050565b600067ffffffffffffffff821115612d5357612d52612e3a565b5b601f19601f8301169050602081019050919050565b600081519050919050565b600082825260208201905092915050565b6000612d8f82612dce565b9050919050565b60008115159050919050565b60007fffffffff0000000000000000000000000000000000000000000000000000000082169050919050565b600073ffffffffffffffffffffffffffffffffffffffff82169050919050565b6000819050919050565b82818337600083830152505050565b60005b83811015612e25578082015181840152602081019050612e0a565b83811115612e34576000848401525b50505050565bfe5b6000601f19601f8301169050919050565b612e5681612d84565b8114612e6157600080fd5b50565b612e6d81612d96565b8114612e7857600080fd5b50565b612e8481612da2565b8114612e8f57600080fd5b50565b612e9b81612dee565b8114612ea657600080fd5b5056fe456e756d657261626c655365743a20696e646578206f7574206f6620626f756e64734552433732313a207472616e7366657220746f206e6f6e20455243373231526563656976657220696d706c656d656e7465724552433732313a207472616e7366657220746f20746865207a65726f2061646472657373416464726573733a20696e73756666696369656e742062616c616e636520666f722063616c6c4552433732313a206f70657261746f7220717565727920666f72206e6f6e6578697374656e7420746f6b656e4552433732313a20617070726f76652063616c6c6572206973206e6f74206f776e6572206e6f7220617070726f76656420666f7220616c6c4552433732313a2062616c616e636520717565727920666f7220746865207a65726f20616464726573734552433732313a206f776e657220717565727920666f72206e6f6e6578697374656e7420746f6b656e456e756d657261626c654d61703a20696e646578206f7574206f6620626f756e64734552433732313a20617070726f76656420717565727920666f72206e6f6e6578697374656e7420746f6b656e4552433732313a207472616e73666572206f6620746f6b656e2074686174206973206e6f74206f776e4552433732314d657461646174613a2055524920717565727920666f72206e6f6e6578697374656e7420746f6b656e4552433732313a20617070726f76616c20746f2063757272656e74206f776e65724552433732313a207472616e736665722063616c6c6572206973206e6f74206f776e6572206e6f7220617070726f766564a264697066735822122018dcf83134115cfbcd616f2534eb957cac57edd9047a5709f3251358951c497864736f6c63430007060033",
  "devdoc": {
    "kind": "dev",
    "methods": {
      "approve(address,uint256)": {
        "details": "See {IERC721-approve}."
      },
      "balanceOf(address)": {
        "details": "See {IERC721-balanceOf}."
      },
      "baseURI()": {
        "details": "Returns the base URI set via {_setBaseURI}. This will be automatically added as a prefix in {tokenURI} to each token's URI, or to the token ID if no specific URI is set for that token ID."
      },
      "getApproved(uint256)": {
        "details": "See {IERC721-getApproved}."
      },
      "isApprovedForAll(address,address)": {
        "details": "See {IERC721-isApprovedForAll}."
      },
      "name()": {
        "details": "See {IERC721Metadata-name}."
      },
      "ownerOf(uint256)": {
        "details": "See {IERC721-ownerOf}."
      },
      "safeTransferFrom(address,address,uint256)": {
        "details": "See {IERC721-safeTransferFrom}."
      },
      "safeTransferFrom(address,address,uint256,bytes)": {
        "details": "See {IERC721-safeTransferFrom}."
      },
      "setApprovalForAll(address,bool)": {
        "details": "See {IERC721-setApprovalForAll}."
      },
      "supportsInterface(bytes4)": {
        "details": "See {IERC165-supportsInterface}. Time complexity O(1), guaranteed to always use less than 30 000 gas."
      },
      "symbol()": {
        "details": "See {IERC721Metadata-symbol}."
      },
      "tokenByIndex(uint256)": {
        "details": "See {IERC721Enumerable-tokenByIndex}."
      },
      "tokenOfOwnerByIndex(address,uint256)": {
        "details": "See {IERC721Enumerable-tokenOfOwnerByIndex}."
      },
      "tokenURI(uint256)": {
        "details": "See {IERC721Metadata-tokenURI}."
      },
      "totalSupply()": {
        "details": "See {IERC721Enumerable-totalSupply}."
      },
      "transferFrom(address,address,uint256)": {
        "details": "See {IERC721-transferFrom}."
      }
    },
    "version": 1
  },
  "userdoc": {
    "kind": "user",
    "methods": {},
    "version": 1
  },
  "storageLayout": {
    "storage": [
      {
        "astId": 4205,
        "contract": "contracts/L1ClaimableToken.sol:L1ClaimableToken",
        "label": "_supportedInterfaces",
        "offset": 0,
        "slot": "0",
        "type": "t_mapping(t_bytes4,t_bool)"
      },
      {
        "astId": 5242,
        "contract": "contracts/L1ClaimableToken.sol:L1ClaimableToken",
        "label": "_holderTokens",
        "offset": 0,
        "slot": "1",
        "type": "t_mapping(t_address,t_struct(UintSet)7608_storage)"
      },
      {
        "astId": 5244,
        "contract": "contracts/L1ClaimableToken.sol:L1ClaimableToken",
        "label": "_tokenOwners",
        "offset": 0,
        "slot": "2",
        "type": "t_struct(UintToAddressMap)6985_storage"
      },
      {
        "astId": 5248,
        "contract": "contracts/L1ClaimableToken.sol:L1ClaimableToken",
        "label": "_tokenApprovals",
        "offset": 0,
        "slot": "4",
        "type": "t_mapping(t_uint256,t_address)"
      },
      {
        "astId": 5254,
        "contract": "contracts/L1ClaimableToken.sol:L1ClaimableToken",
        "label": "_operatorApprovals",
        "offset": 0,
        "slot": "5",
        "type": "t_mapping(t_address,t_mapping(t_address,t_bool))"
      },
      {
        "astId": 5256,
        "contract": "contracts/L1ClaimableToken.sol:L1ClaimableToken",
        "label": "_name",
        "offset": 0,
        "slot": "6",
        "type": "t_string_storage"
      },
      {
        "astId": 5258,
        "contract": "contracts/L1ClaimableToken.sol:L1ClaimableToken",
        "label": "_symbol",
        "offset": 0,
        "slot": "7",
        "type": "t_string_storage"
      },
      {
        "astId": 5262,
        "contract": "contracts/L1ClaimableToken.sol:L1ClaimableToken",
        "label": "_tokenURIs",
        "offset": 0,
        "slot": "8",
        "type": "t_mapping(t_uint256,t_string_storage)"
      },
      {
        "astId": 5264,
        "contract": "contracts/L1ClaimableToken.sol:L1ClaimableToken",
        "label": "_baseURI",
        "offset": 0,
        "slot": "9",
        "type": "t_string_storage"
      },
      {
        "astId": 7916,
        "contract": "contracts/L1ClaimableToken.sol:L1ClaimableToken",
        "label": "tokenInfos",
        "offset": 0,
        "slot": "10",
        "type": "t_mapping(t_uint256,t_struct(TokenInfo)7912_storage)"
      },
      {
        "astId": 7918,
        "contract": "contracts/L1ClaimableToken.sol:L1ClaimableToken",
        "label": "owner",
        "offset": 0,
        "slot": "11",
        "type": "t_address"
      }
    ],
    "types": {
      "t_address": {
        "encoding": "inplace",
        "label": "address",
        "numberOfBytes": "20"
      },
      "t_array(t_bytes32)dyn_storage": {
        "base": "t_bytes32",
        "encoding": "dynamic_array",
        "label": "bytes32[]",
        "numberOfBytes": "32"
      },
      "t_array(t_struct(MapEntry)6659_storage)dyn_storage": {
        "base": "t_struct(MapEntry)6659_storage",
        "encoding": "dynamic_array",
        "label": "struct EnumerableMap.MapEntry[]",
        "numberOfBytes": "32"
      },
      "t_bool": {
        "encoding": "inplace",
        "label": "bool",
        "numberOfBytes": "1"
      },
      "t_bytes32": {
        "encoding": "inplace",
        "label": "bytes32",
        "numberOfBytes": "32"
      },
      "t_bytes4": {
        "encoding": "inplace",
        "label": "bytes4",
        "numberOfBytes": "4"
      },
      "t_mapping(t_address,t_bool)": {
        "encoding": "mapping",
        "key": "t_address",
        "label": "mapping(address => bool)",
        "numberOfBytes": "32",
        "value": "t_bool"
      },
      "t_mapping(t_address,t_mapping(t_address,t_bool))": {
        "encoding": "mapping",
        "key": "t_address",
        "label": "mapping(address => mapping(address => bool))",
        "numberOfBytes": "32",
        "value": "t_mapping(t_address,t_bool)"
      },
      "t_mapping(t_address,t_struct(UintSet)7608_storage)": {
        "encoding": "mapping",
        "key": "t_address",
        "label": "mapping(address => struct EnumerableSet.UintSet)",
        "numberOfBytes": "32",
        "value": "t_struct(UintSet)7608_storage"
      },
      "t_mapping(t_bytes32,t_uint256)": {
        "encoding": "mapping",
        "key": "t_bytes32",
        "label": "mapping(bytes32 => uint256)",
        "numberOfBytes": "32",
        "value": "t_uint256"
      },
      "t_mapping(t_bytes4,t_bool)": {
        "encoding": "mapping",
        "key": "t_bytes4",
        "label": "mapping(bytes4 => bool)",
        "numberOfBytes": "32",
        "value": "t_bool"
      },
      "t_mapping(t_uint256,t_address)": {
        "encoding": "mapping",
        "key": "t_uint256",
        "label": "mapping(uint256 => address)",
        "numberOfBytes": "32",
        "value": "t_address"
      },
      "t_mapping(t_uint256,t_string_storage)": {
        "encoding": "mapping",
        "key": "t_uint256",
        "label": "mapping(uint256 => string)",
        "numberOfBytes": "32",
        "value": "t_string_storage"
      },
      "t_mapping(t_uint256,t_struct(TokenInfo)7912_storage)": {
        "encoding": "mapping",
        "key": "t_uint256",
        "label": "mapping(uint256 => struct L1ClaimableToken.TokenInfo)",
        "numberOfBytes": "32",
        "value": "t_struct(TokenInfo)7912_storage"
      },
      "t_string_storage": {
        "encoding": "bytes",
        "label": "string",
        "numberOfBytes": "32"
      },
      "t_struct(Map)6667_storage": {
        "encoding": "inplace",
        "label": "struct EnumerableMap.Map",
        "members": [
          {
            "astId": 6662,
            "contract": "contracts/L1ClaimableToken.sol:L1ClaimableToken",
            "label": "_entries",
            "offset": 0,
            "slot": "0",
            "type": "t_array(t_struct(MapEntry)6659_storage)dyn_storage"
          },
          {
            "astId": 6666,
            "contract": "contracts/L1ClaimableToken.sol:L1ClaimableToken",
            "label": "_indexes",
            "offset": 0,
            "slot": "1",
            "type": "t_mapping(t_bytes32,t_uint256)"
          }
        ],
        "numberOfBytes": "64"
      },
      "t_struct(MapEntry)6659_storage": {
        "encoding": "inplace",
        "label": "struct EnumerableMap.MapEntry",
        "members": [
          {
            "astId": 6656,
            "contract": "contracts/L1ClaimableToken.sol:L1ClaimableToken",
            "label": "_key",
            "offset": 0,
            "slot": "0",
            "type": "t_bytes32"
          },
          {
            "astId": 6658,
            "contract": "contracts/L1ClaimableToken.sol:L1ClaimableToken",
            "label": "_value",
            "offset": 0,
            "slot": "1",
            "type": "t_bytes32"
          }
        ],
        "numberOfBytes": "64"
      },
      "t_struct(Set)7222_storage": {
        "encoding": "inplace",
        "label": "struct EnumerableSet.Set",
        "members": [
          {
            "astId": 7217,
            "contract": "contracts/L1ClaimableToken.sol:L1ClaimableToken",
            "label": "_values",
            "offset": 0,
            "slot": "0",
            "type": "t_array(t_bytes32)dyn_storage"
          },
          {
            "astId": 7221,
            "contract": "contracts/L1ClaimableToken.sol:L1ClaimableToken",
            "label": "_indexes",
            "offset": 0,
            "slot": "1",
            "type": "t_mapping(t_bytes32,t_uint256)"
          }
        ],
        "numberOfBytes": "64"
      },
      "t_struct(TokenInfo)7912_storage": {
        "encoding": "inplace",
        "label": "struct L1ClaimableToken.TokenInfo",
        "members": [
          {
            "astId": 7897,
            "contract": "contracts/L1ClaimableToken.sol:L1ClaimableToken",
            "label": "tokenId",
            "offset": 0,
            "slot": "0",
            "type": "t_uint256"
          },
          {
            "astId": 7899,
            "contract": "contracts/L1ClaimableToken.sol:L1ClaimableToken",
            "label": "transactionIndex",
            "offset": 0,
            "slot": "1",
            "type": "t_uint256"
          },
          {
            "astId": 7901,
            "contract": "contracts/L1ClaimableToken.sol:L1ClaimableToken",
            "label": "origin",
            "offset": 0,
            "slot": "2",
            "type": "t_address"
          },
          {
            "astId": 7903,
            "contract": "contracts/L1ClaimableToken.sol:L1ClaimableToken",
            "label": "l1Token",
            "offset": 0,
            "slot": "3",
            "type": "t_address"
          },
          {
            "astId": 7905,
            "contract": "contracts/L1ClaimableToken.sol:L1ClaimableToken",
            "label": "l2Token",
            "offset": 0,
            "slot": "4",
            "type": "t_address"
          },
          {
            "astId": 7907,
            "contract": "contracts/L1ClaimableToken.sol:L1ClaimableToken",
            "label": "amount",
            "offset": 0,
            "slot": "5",
            "type": "t_uint256"
          },
          {
            "astId": 7909,
            "contract": "contracts/L1ClaimableToken.sol:L1ClaimableToken",
            "label": "fee",
            "offset": 0,
            "slot": "6",
            "type": "t_uint256"
          },
          {
            "astId": 7911,
            "contract": "contracts/L1ClaimableToken.sol:L1ClaimableToken",
            "label": "claimed",
            "offset": 0,
            "slot": "7",
            "type": "t_bool"
          }
        ],
        "numberOfBytes": "256"
      },
      "t_struct(UintSet)7608_storage": {
        "encoding": "inplace",
        "label": "struct EnumerableSet.UintSet",
        "members": [
          {
            "astId": 7607,
            "contract": "contracts/L1ClaimableToken.sol:L1ClaimableToken",
            "label": "_inner",
            "offset": 0,
            "slot": "0",
            "type": "t_struct(Set)7222_storage"
          }
        ],
        "numberOfBytes": "64"
      },
      "t_struct(UintToAddressMap)6985_storage": {
        "encoding": "inplace",
        "label": "struct EnumerableMap.UintToAddressMap",
        "members": [
          {
            "astId": 6984,
            "contract": "contracts/L1ClaimableToken.sol:L1ClaimableToken",
            "label": "_inner",
            "offset": 0,
            "slot": "0",
            "type": "t_struct(Map)6667_storage"
          }
        ],
        "numberOfBytes": "64"
      },
      "t_uint256": {
        "encoding": "inplace",
        "label": "uint256",
        "numberOfBytes": "32"
      }
    }
  }
}