{
  "address": "0x9017083413869FAAcC18Ce3b1d4a6017268afdC7",
  "abi": [
    {
      "inputs": [
        {
          "internalType": "address",
          "name": "_ctc",
          "type": "address"
        },
        {
          "internalType": "address",
          "name": "_scc",
          "type": "address"
        },
        {
          "internalType": "address",
          "name": "_cToken",
          "type": "address"
        }
      ],
      "stateMutability": "nonpayable",
      "type": "constructor"
    },
    {
      "anonymous": false,
      "inputs": [
        {
          "indexed": true,
          "internalType": "uint256",
          "name": "tokenId",
          "type": "uint256"
        },
        {
          "indexed": true,
          "internalType": "uint256",
          "name": "amount",
          "type": "uint256"
        }
      ],
      "name": "Claimed",
      "type": "event"
    },
    {
      "inputs": [
        {
          "components": [
            {
              "internalType": "uint256",
              "name": "batchIndex",
              "type": "uint256"
            },
            {
              "internalType": "bytes32",
              "name": "batchRoot",
              "type": "bytes32"
            },
            {
              "internalType": "uint256",
              "name": "batchSize",
              "type": "uint256"
            },
            {
              "internalType": "uint256",
              "name": "prevTotalElements",
              "type": "uint256"
            },
            {
              "internalType": "bytes",
              "name": "extraData",
              "type": "bytes"
            }
          ],
          "internalType": "struct Lib_OVMCodec.ChainBatchHeader",
          "name": "_batchHeader",
          "type": "tuple"
        },
        {
          "internalType": "uint256",
          "name": "_tokenId",
          "type": "uint256"
        }
      ],
      "name": "claim",
      "outputs": [],
      "stateMutability": "nonpayable",
      "type": "function"
    },
    {
      "inputs": [],
      "name": "claimableToken",
      "outputs": [
        {
          "internalType": "contract L1ClaimableToken",
          "name": "",
          "type": "address"
        }
      ],
      "stateMutability": "view",
      "type": "function"
    },
    {
      "inputs": [],
      "name": "ctc",
      "outputs": [
        {
          "internalType": "contract iOVM_CanonicalTransactionChain",
          "name": "",
          "type": "address"
        }
      ],
      "stateMutability": "view",
      "type": "function"
    },
    {
      "inputs": [
        {
          "internalType": "uint256",
          "name": "",
          "type": "uint256"
        }
      ],
      "name": "minted",
      "outputs": [
        {
          "internalType": "bool",
          "name": "",
          "type": "bool"
        }
      ],
      "stateMutability": "view",
      "type": "function"
    },
    {
      "inputs": [
        {
          "internalType": "uint256",
          "name": "l2TxIndex",
          "type": "uint256"
        },
        {
          "internalType": "uint256",
          "name": "chainId",
          "type": "uint256"
        },
        {
          "components": [
            {
              "internalType": "uint256",
              "name": "timestamp",
              "type": "uint256"
            },
            {
              "internalType": "uint256",
              "name": "blockNumber",
              "type": "uint256"
            },
            {
              "internalType": "enum Lib_OVMCodec.QueueOrigin",
              "name": "l1QueueOrigin",
              "type": "uint8"
            },
            {
              "internalType": "address",
              "name": "l1TxOrigin",
              "type": "address"
            },
            {
              "internalType": "address",
              "name": "entrypoint",
              "type": "address"
            },
            {
              "internalType": "uint256",
              "name": "gasLimit",
              "type": "uint256"
            },
            {
              "internalType": "bytes",
              "name": "data",
              "type": "bytes"
            }
          ],
          "internalType": "struct Lib_OVMCodec.Transaction",
          "name": "_transaction",
          "type": "tuple"
        },
        {
          "components": [
            {
              "internalType": "bool",
              "name": "isSequenced",
              "type": "bool"
            },
            {
              "internalType": "uint256",
              "name": "queueIndex",
              "type": "uint256"
            },
            {
              "internalType": "uint256",
              "name": "timestamp",
              "type": "uint256"
            },
            {
              "internalType": "uint256",
              "name": "blockNumber",
              "type": "uint256"
            },
            {
              "internalType": "bytes",
              "name": "txData",
              "type": "bytes"
            }
          ],
          "internalType": "struct Lib_OVMCodec.TransactionChainElement",
          "name": "_txChainElement",
          "type": "tuple"
        },
        {
          "components": [
            {
              "internalType": "uint256",
              "name": "batchIndex",
              "type": "uint256"
            },
            {
              "internalType": "bytes32",
              "name": "batchRoot",
              "type": "bytes32"
            },
            {
              "internalType": "uint256",
              "name": "batchSize",
              "type": "uint256"
            },
            {
              "internalType": "uint256",
              "name": "prevTotalElements",
              "type": "uint256"
            },
            {
              "internalType": "bytes",
              "name": "extraData",
              "type": "bytes"
            }
          ],
          "internalType": "struct Lib_OVMCodec.ChainBatchHeader",
          "name": "_batchHeader",
          "type": "tuple"
        },
        {
          "components": [
            {
              "internalType": "uint256",
              "name": "index",
              "type": "uint256"
            },
            {
              "internalType": "bytes32[]",
              "name": "siblings",
              "type": "bytes32[]"
            }
          ],
          "internalType": "struct Lib_OVMCodec.ChainInclusionProof",
          "name": "_inclusionProof",
          "type": "tuple"
        }
      ],
      "name": "processFastWithdrawal",
      "outputs": [],
      "stateMutability": "nonpayable",
      "type": "function"
    },
    {
      "inputs": [],
      "name": "scc",
      "outputs": [
        {
          "internalType": "contract OVM_StateCommitmentChain",
          "name": "",
          "type": "address"
        }
      ],
      "stateMutability": "view",
      "type": "function"
    },
    {
      "inputs": [
        {
          "internalType": "address",
          "name": "operator",
          "type": "address"
        },
        {
          "internalType": "bool",
          "name": "approved",
          "type": "bool"
        }
      ],
      "name": "setApprovalForAll",
      "outputs": [],
      "stateMutability": "nonpayable",
      "type": "function"
    },
    {
      "inputs": [],
      "name": "tokenId",
      "outputs": [
        {
          "internalType": "uint256",
          "name": "",
          "type": "uint256"
        }
      ],
      "stateMutability": "view",
      "type": "function"
    }
  ],
  "transactionHash": "0x406f14645dd3458ad8c44b9671d8fb8fba2f26411cc7e9714389bc002b7bc287",
  "args": [
    "0xe28c499EB8c36C0C18d1bdCdC47a51585698cb93",
    "0xa2487713665AC596b0b3E4881417f276834473d2",
    "0x3477402E901d57B1CD7e811CFb64F8aC81F23d83"
  ],
  "solcInputHash": "98b7b2811de47d07a2bc1917f726f6f6",
  "bytecode": "0x60806040526040518060400160405280600a81526020017f3078373039306664393000000000000000000000000000000000000000000000815250600490805190602001906200005192919062000150565b503480156200005f57600080fd5b506040516200323a3803806200323a83398181016040528101906200008591906200021d565b826000806101000a81548173ffffffffffffffffffffffffffffffffffffffff021916908373ffffffffffffffffffffffffffffffffffffffff16021790555081600160006101000a81548173ffffffffffffffffffffffffffffffffffffffff021916908373ffffffffffffffffffffffffffffffffffffffff16021790555080600260006101000a81548173ffffffffffffffffffffffffffffffffffffffff021916908373ffffffffffffffffffffffffffffffffffffffff160217905550505050620002c1565b828054600181600116156101000203166002900490600052602060002090601f016020900481019282620001885760008555620001d4565b82601f10620001a357805160ff1916838001178555620001d4565b82800160010185558215620001d4579182015b82811115620001d3578251825591602001919060010190620001b6565b5b509050620001e39190620001e7565b5090565b5b8082111562000202576000816000905550600101620001e8565b5090565b6000815190506200021781620002a7565b92915050565b6000806000606084860312156200023357600080fd5b6000620002438682870162000206565b9350506020620002568682870162000206565b9250506040620002698682870162000206565b9150509250925092565b6000620002808262000287565b9050919050565b600073ffffffffffffffffffffffffffffffffffffffff82169050919050565b620002b28162000273565b8114620002be57600080fd5b50565b612f6980620002d16000396000f3fe608060405234801561001057600080fd5b50600436106100875760003560e01c80637dc0bf3f1161005b5780637dc0bf3f14610100578063a22cb46514610130578063c74f89051461014c578063f6d6d5aa1461016a57610087565b80629aba4c1461008c57806307f775ee146100a857806317d70f7c146100c4578063543acd50146100e2575b600080fd5b6100a660048036038101906100a19190612140565b610188565b005b6100c260048036038101906100bd919061226f565b6106a3565b005b6100cc6109a6565b6040516100d99190612b4a565b60405180910390f35b6100ea6109ac565b6040516100f791906129b3565b60405180910390f35b61011a60048036038101906101159190612194565b6109d2565b6040516101279190612931565b60405180910390f35b61014a60048036038101906101459190612089565b6109f2565b005b610154610a85565b60405161016191906129ce565b60405180910390f35b610172610aa9565b60405161017f9190612998565b60405180910390f35b600160009054906101000a900473ffffffffffffffffffffffffffffffffffffffff1673ffffffffffffffffffffffffffffffffffffffff1663cfdf677e6040518163ffffffff1660e01b815260040160206040518083038186803b1580156101f057600080fd5b505afa158015610204573d6000803e3d6000fd5b505050506040513d601f19601f820116820180604052508101906102289190612117565b73ffffffffffffffffffffffffffffffffffffffff16639507d39a83600001516040518263ffffffff1660e01b81526004016102649190612b4a565b60206040518083038186803b15801561027c57600080fd5b505afa158015610290573d6000803e3d6000fd5b505050506040513d601f19601f820116820180604052508101906102b491906120ee565b6102bd83610acf565b146102fd576040517f08c379a00000000000000000000000000000000000000000000000000000000081526004016102f490612a89565b60405180910390fd5b6000600260009054906101000a900473ffffffffffffffffffffffffffffffffffffffff1673ffffffffffffffffffffffffffffffffffffffff16636352211e836040518263ffffffff1660e01b815260040161035a9190612b4a565b60206040518083038186803b15801561037257600080fd5b505afa158015610386573d6000803e3d6000fd5b505050506040513d601f19601f820116820180604052508101906103aa9190611f96565b90506000806000806000600260009054906101000a900473ffffffffffffffffffffffffffffffffffffffff1673ffffffffffffffffffffffffffffffffffffffff16637c13774b886040518263ffffffff1660e01b815260040161040f9190612b4a565b6101006040518083038186803b15801561042857600080fd5b505afa15801561043c573d6000803e3d6000fd5b505050506040513d601f19601f8201168201806040525081019061046091906121bd565b9750975097505096505095505060001515811515146104b4576040517f08c379a00000000000000000000000000000000000000000000000000000000081526004016104ab90612ac9565b60405180910390fd5b848860600151116104fa576040517f08c379a00000000000000000000000000000000000000000000000000000000081526004016104f190612a69565b60405180910390fd5b600061050f8385610b1590919063ffffffff16565b90508473ffffffffffffffffffffffffffffffffffffffff1663a9059cbb88866040518363ffffffff1660e01b815260040161054c929190612908565b602060405180830381600087803b15801561056657600080fd5b505af115801561057a573d6000803e3d6000fd5b505050506040513d601f19601f8201168201806040525081019061059e91906120c5565b6105dd576040517f08c379a00000000000000000000000000000000000000000000000000000000081526004016105d490612a49565b60405180910390fd5b600260009054906101000a900473ffffffffffffffffffffffffffffffffffffffff1673ffffffffffffffffffffffffffffffffffffffff1663379607f5896040518263ffffffff1660e01b81526004016106389190612b4a565b600060405180830381600087803b15801561065257600080fd5b505af1158015610666573d6000803e3d6000fd5b5050505080887fc83b5086ce94ec8d5a88a9f5fea4b18a522bb238ed0d2d8abd959549a80c16b860405160405180910390a3505050505050505050565b60008260600151905060008260000151905060006106ca8284610b1590919063ffffffff16565b905080891461070e576040517f08c379a000000000000000000000000000000000000000000000000000000000815260040161070590612a29565b60405180910390fd5b6005600082815260200190815260200160002060009054906101000a900460ff161561076f576040517f08c379a000000000000000000000000000000000000000000000000000000000815260040161076690612aa9565b60405180910390fd5b60008054906101000a900473ffffffffffffffffffffffffffffffffffffffff1673ffffffffffffffffffffffffffffffffffffffff16634de569ce888888886040518563ffffffff1660e01b81526004016107ce9493929190612ae9565b60206040518083038186803b1580156107e657600080fd5b505afa1580156107fa573d6000803e3d6000fd5b505050506040513d601f19601f8201168201806040525081019061081e91906120c5565b61085d576040517f08c379a000000000000000000000000000000000000000000000000000000000815260040161085490612a09565b60405180910390fd5b60008760c0015190506000610872828b610b9d565b905060008160a001519050600061088c8260006004610da9565b9050600061089b836004610f93565b905060008060008060006108ae86610fcb565b94509450945094509450600260009054906101000a900473ffffffffffffffffffffffffffffffffffffffff1673ffffffffffffffffffffffffffffffffffffffff1663cf7556896003548d88888888886040518863ffffffff1660e01b81526004016109219796959493929190612b65565b600060405180830381600087803b15801561093b57600080fd5b505af115801561094f573d6000803e3d6000fd5b505050506001600560008d815260200190815260200160002060006101000a81548160ff02191690831515021790555060036000815480929190600101919050555050505050505050505050505050505050505050565b60035481565b600160009054906101000a900473ffffffffffffffffffffffffffffffffffffffff1681565b60056020528060005260406000206000915054906101000a900460ff1681565b600260009054906101000a900473ffffffffffffffffffffffffffffffffffffffff1673ffffffffffffffffffffffffffffffffffffffff1663a22cb46583836040518363ffffffff1660e01b8152600401610a4f9291906128df565b600060405180830381600087803b158015610a6957600080fd5b505af1158015610a7d573d6000803e3d6000fd5b505050505050565b60008054906101000a900473ffffffffffffffffffffffffffffffffffffffff1681565b600260009054906101000a900473ffffffffffffffffffffffffffffffffffffffff1681565b60008160200151826040015183606001518460800151604051602001610af8949392919061294c565b604051602081830303815290604052805190602001209050919050565b600080828401905083811015610b93576040517f08c379a000000000000000000000000000000000000000000000000000000000815260040180806020018281038252601b8152602001807f536166654d6174683a206164646974696f6e206f766572666c6f77000000000081525060200191505060405180910390fd5b8091505092915050565b610ba5611a29565b6000610bb084611023565b90506000610bd182600681518110610bc457fe5b602002602001015161103d565b905060006023856002028360ff160303905060028160ff1610610c29576040517f08c379a0000000000000000000000000000000000000000000000000000000008152600401610c20906129e9565b60405180910390fd5b600080610c4985600381518110610c3c57fe5b6020026020010151611052565b51149050604051806101800160405280610c7686600081518110610c6957fe5b602002602001015161103d565b8152602001610c9886600181518110610c8b57fe5b602002602001015161103d565b8152602001610cba86600281518110610cad57fe5b602002602001015161103d565b8152602001610cdc86600381518110610ccf57fe5b602002602001015161110d565b73ffffffffffffffffffffffffffffffffffffffff168152602001610d1486600481518110610d0757fe5b602002602001015161103d565b8152602001610d3686600581518110610d2957fe5b6020026020010151611052565b81526020018460ff168152602001610d6186600781518110610d5457fe5b60200260200101516111b0565b8152602001610d8386600881518110610d7657fe5b60200260200101516111b0565b81526020018781526020018360ff16815260200182151581525094505050505092915050565b606081601f83011015610e24576040517f08c379a000000000000000000000000000000000000000000000000000000000815260040180806020018281038252600e8152602001807f736c6963655f6f766572666c6f7700000000000000000000000000000000000081525060200191505060405180910390fd5b828284011015610e9c576040517f08c379a000000000000000000000000000000000000000000000000000000000815260040180806020018281038252600e8152602001807f736c6963655f6f766572666c6f7700000000000000000000000000000000000081525060200191505060405180910390fd5b81830184511015610f15576040517f08c379a00000000000000000000000000000000000000000000000000000000081526004018080602001828103825260118152602001807f736c6963655f6f75744f66426f756e647300000000000000000000000000000081525060200191505060405180910390fd5b6060821560008114610f365760405191506000825260208201604052610f87565b6040519150601f8416801560200281840101858101878315602002848b0101015b81831015610f745780518352602083019250602081019050610f57565b50868552601f19601f8301166040525050505b50809150509392505050565b606082518210610fb457604051806020016040528060008152509050610fc5565b610fc2838384865103610da9565b90505b92915050565b60008060008060008060008060008060008060008d806020019051810190610ff39190611fbf565b9750975097509750975097509750975087878786869c509c509c509c509c50505050505050505091939590929450565b606061103661103183611301565b61132f565b9050919050565b6000611048826111b0565b60001c9050919050565b6060600080600061106285611519565b9250925092506000600181111561107557fe5b81600181111561108157fe5b146110f4576040517f08c379a00000000000000000000000000000000000000000000000000000000081526004018080602001828103825260188152602001807f496e76616c696420524c502062797465732076616c75652e000000000000000081525060200191505060405180910390fd5b6111038560200151848461194f565b9350505050919050565b600060018260000151141561112557600090506111ab565b601582600001511461119f576040517f08c379a000000000000000000000000000000000000000000000000000000000815260040180806020018281038252601a8152602001807f496e76616c696420524c5020616464726573732076616c75652e00000000000081525060200191505060405180910390fd5b6111a88261103d565b90505b919050565b600060218260000151111561122d576040517f08c379a000000000000000000000000000000000000000000000000000000000815260040180806020018281038252601a8152602001807f496e76616c696420524c5020627974657333322076616c75652e00000000000081525060200191505060405180910390fd5b600080600061123b85611519565b9250925092506000600181111561124e57fe5b81600181111561125a57fe5b146112cd576040517f08c379a000000000000000000000000000000000000000000000000000000000815260040180806020018281038252601a8152602001807f496e76616c696420524c5020627974657333322076616c75652e00000000000081525060200191505060405180910390fd5b600083866020015101905060008151905060208410156112f457836020036101000a810490505b8095505050505050919050565b611309611aae565b600060208301905060405180604001604052808451815260200182815250915050919050565b606060008061133d84611519565b925050915060018081111561134e57fe5b81600181111561135a57fe5b146113cd576040517f08c379a00000000000000000000000000000000000000000000000000000000081526004018080602001828103825260178152602001807f496e76616c696420524c50206c6973742076616c75652e00000000000000000081525060200191505060405180910390fd5b6000602067ffffffffffffffff811180156113e757600080fd5b5060405190808252806020026020018201604052801561142157816020015b61140e611aae565b8152602001906001900390816114065790505b5090506000808490505b86600001518110156115095760208210611490576040517f08c379a000000000000000000000000000000000000000000000000000000000815260040180806020018281038252602a815260200180612f0a602a913960400191505060405180910390fd5b6000806114bc6040518060400160405280858c60000151038152602001858c6020015101815250611519565b509150915060405180604001604052808383018152602001848b60200151018152508585815181106114ea57fe5b602002602001018190525060018401935080820183019250505061142b565b8183528295505050505050919050565b600080600080846000015111611597576040517f08c379a00000000000000000000000000000000000000000000000000000000081526004018080602001828103825260188152602001807f524c50206974656d2063616e6e6f74206265206e756c6c2e000000000000000081525060200191505060405180910390fd5b6000846020015190506000815160001a9050607f81116115c4576000600160009450945094505050611948565b60b781116116605760006080820390508087600001511161164d576040517f08c379a00000000000000000000000000000000000000000000000000000000081526004018080602001828103825260198152602001807f496e76616c696420524c502073686f727420737472696e672e0000000000000081525060200191505060405180910390fd5b6001816000955095509550505050611948565b60bf811161178c57600060b782039050808760000151116116e9576040517f08c379a000000000000000000000000000000000000000000000000000000000815260040180806020018281038252601f8152602001807f496e76616c696420524c50206c6f6e6720737472696e67206c656e6774682e0081525060200191505060405180910390fd5b6000816020036101000a6001850151049050808201886000015111611776576040517f08c379a00000000000000000000000000000000000000000000000000000000081526004018080602001828103825260188152602001807f496e76616c696420524c50206c6f6e6720737472696e672e000000000000000081525060200191505060405180910390fd5b8160010181600096509650965050505050611948565b60f7811161182857600060c08203905080876000015111611815576040517f08c379a00000000000000000000000000000000000000000000000000000000081526004018080602001828103825260178152602001807f496e76616c696420524c502073686f7274206c6973742e00000000000000000081525060200191505060405180910390fd5b6001816001955095509550505050611948565b600060f782039050808760000151116118a9576040517f08c379a000000000000000000000000000000000000000000000000000000000815260040180806020018281038252601d8152602001807f496e76616c696420524c50206c6f6e67206c697374206c656e6774682e00000081525060200191505060405180910390fd5b6000816020036101000a6001850151049050808201886000015111611936576040517f08c379a00000000000000000000000000000000000000000000000000000000081526004018080602001828103825260168152602001807f496e76616c696420524c50206c6f6e67206c6973742e0000000000000000000081525060200191505060405180910390fd5b81600101816001965096509650505050505b9193909250565b606060008267ffffffffffffffff8111801561196a57600080fd5b506040519080825280601f01601f19166020018201604052801561199d5781602001600182028036833780820191505090505b5090506000815114156119b35780915050611a22565b60008486019050600060208301905060005b602086816119cf57fe5b048110156119f4578251825260208301925060208201915080806001019150506119c5565b506000600160208781611a0357fe5b066020036101000a039050808251168119845116178252839450505050505b9392505050565b604051806101800160405280600081526020016000815260200160008152602001600073ffffffffffffffffffffffffffffffffffffffff1681526020016000815260200160608152602001600060ff168152602001600080191681526020016000801916815260200160008152602001600060ff1681526020016000151581525090565b604051806040016040528060008152602001600081525090565b6000611adb611ad684612c05565b612bd4565b90508083825260208201905082856020860282011115611afa57600080fd5b60005b85811015611b2a5781611b108882611c43565b845260208401935060208301925050600181019050611afd565b5050509392505050565b6000611b47611b4284612c31565b612bd4565b905082815260208101848484011115611b5f57600080fd5b611b6a848285612def565b509392505050565b6000611b85611b8084612c31565b612bd4565b905082815260208101848484011115611b9d57600080fd5b611ba8848285612dfe565b509392505050565b600081359050611bbf81612e58565b92915050565b600081519050611bd481612e58565b92915050565b600081519050611be981612e6f565b92915050565b600082601f830112611c0057600080fd5b8135611c10848260208601611ac8565b91505092915050565b600081359050611c2881612e86565b92915050565b600081519050611c3d81612e86565b92915050565b600081359050611c5281612e9d565b92915050565b600081519050611c6781612e9d565b92915050565b600082601f830112611c7e57600080fd5b8135611c8e848260208601611b34565b91505092915050565b600082601f830112611ca857600080fd5b8151611cb8848260208601611b72565b91505092915050565b600081519050611cd081612eb4565b92915050565b600081359050611ce581612ecb565b92915050565b600060a08284031215611cfd57600080fd5b611d0760a0612bd4565b90506000611d1784828501611f57565b6000830152506020611d2b84828501611c43565b6020830152506040611d3f84828501611f57565b6040830152506060611d5384828501611f57565b606083015250608082013567ffffffffffffffff811115611d7357600080fd5b611d7f84828501611c6d565b60808301525092915050565b600060408284031215611d9d57600080fd5b611da76040612bd4565b90506000611db784828501611f57565b600083015250602082013567ffffffffffffffff811115611dd757600080fd5b611de384828501611bef565b60208301525092915050565b600060a08284031215611e0157600080fd5b611e0b60a0612bd4565b90506000611e1b84828501611c19565b6000830152506020611e2f84828501611f57565b6020830152506040611e4384828501611f57565b6040830152506060611e5784828501611f57565b606083015250608082013567ffffffffffffffff811115611e7757600080fd5b611e8384828501611c6d565b60808301525092915050565b600060e08284031215611ea157600080fd5b611eab60e0612bd4565b90506000611ebb84828501611f57565b6000830152506020611ecf84828501611f57565b6020830152506040611ee384828501611cd6565b6040830152506060611ef784828501611bb0565b6060830152506080611f0b84828501611bb0565b60808301525060a0611f1f84828501611f57565b60a08301525060c082013567ffffffffffffffff811115611f3f57600080fd5b611f4b84828501611c6d565b60c08301525092915050565b600081359050611f6681612edb565b92915050565b600081519050611f7b81612edb565b92915050565b600081519050611f9081612ef2565b92915050565b600060208284031215611fa857600080fd5b6000611fb684828501611bc5565b91505092915050565b600080600080600080600080610100898b031215611fdc57600080fd5b6000611fea8b828c01611bda565b9850506020611ffb8b828c01611bda565b975050604061200c8b828c01611bda565b965050606061201d8b828c01611bda565b955050608061202e8b828c01611f6c565b94505060a061203f8b828c01611f6c565b93505060c06120508b828c01611f81565b92505060e089015167ffffffffffffffff81111561206d57600080fd5b6120798b828c01611c97565b9150509295985092959890939650565b6000806040838503121561209c57600080fd5b60006120aa85828601611bb0565b92505060206120bb85828601611c19565b9150509250929050565b6000602082840312156120d757600080fd5b60006120e584828501611c2e565b91505092915050565b60006020828403121561210057600080fd5b600061210e84828501611c58565b91505092915050565b60006020828403121561212957600080fd5b600061213784828501611cc1565b91505092915050565b6000806040838503121561215357600080fd5b600083013567ffffffffffffffff81111561216d57600080fd5b61217985828601611ceb565b925050602061218a85828601611f57565b9150509250929050565b6000602082840312156121a657600080fd5b60006121b484828501611f57565b91505092915050565b600080600080600080600080610100898b0312156121da57600080fd5b60006121e88b828c01611f6c565b98505060206121f98b828c01611f6c565b975050604061220a8b828c01611bc5565b965050606061221b8b828c01611bc5565b955050608061222c8b828c01611bc5565b94505060a061223d8b828c01611f6c565b93505060c061224e8b828c01611f6c565b92505060e061225f8b828c01611c2e565b9150509295985092959890939650565b60008060008060008060c0878903121561228857600080fd5b600061229689828a01611f57565b96505060206122a789828a01611f57565b955050604087013567ffffffffffffffff8111156122c457600080fd5b6122d089828a01611e8f565b945050606087013567ffffffffffffffff8111156122ed57600080fd5b6122f989828a01611def565b935050608087013567ffffffffffffffff81111561231657600080fd5b61232289828a01611ceb565b92505060a087013567ffffffffffffffff81111561233f57600080fd5b61234b89828a01611d8b565b9150509295509295509295565b6000612364838361240a565b60208301905092915050565b61237981612cd8565b82525050565b61238881612cd8565b82525050565b600061239982612c71565b6123a38185612c94565b93506123ae83612c61565b8060005b838110156123df5781516123c68882612358565b97506123d183612c87565b9250506001810190506123b2565b5085935050505092915050565b6123f581612cfc565b82525050565b61240481612cfc565b82525050565b61241381612d08565b82525050565b61242281612d08565b82525050565b600061243382612c7c565b61243d8185612ca5565b935061244d818560208601612dfe565b61245681612e33565b840191505092915050565b600061246c82612c7c565b6124768185612cb6565b9350612486818560208601612dfe565b61248f81612e33565b840191505092915050565b6124a381612d71565b82525050565b6124b281612d95565b82525050565b6124c181612db9565b82525050565b6124d081612ddd565b82525050565b60006124e3603483612cc7565b91507f4c69625f45495031353554783a205472616e73616374696f6e207369676e656460008301527f20776974682077726f6e6720636861696e2049440000000000000000000000006020830152604082019050919050565b6000612549600d83612cc7565b91507f494e56414c49445f50524f4f46000000000000000000000000000000000000006000830152602082019050919050565b6000612589600d83612cc7565b91507f494e56414c49445f494e444558000000000000000000000000000000000000006000830152602082019050919050565b60006125c9600d83612cc7565b91507f4641494c5f5452414e53464552000000000000000000000000000000000000006000830152602082019050919050565b6000612609600c83612cc7565b91507f4f55545f4f465f494e44455800000000000000000000000000000000000000006000830152602082019050919050565b6000612649600e83612cc7565b91507f494e56414c49445f4845414445520000000000000000000000000000000000006000830152602082019050919050565b6000612689600e83612cc7565b91507f414c52454144595f4d494e5445440000000000000000000000000000000000006000830152602082019050919050565b60006126c9600f83612cc7565b91507f414c52454144595f434c41494d454400000000000000000000000000000000006000830152602082019050919050565b600060a08301600083015161271460008601826128c1565b506020830151612727602086018261240a565b50604083015161273a60408601826128c1565b50606083015161274d60608601826128c1565b50608083015184820360808601526127658282612428565b9150508091505092915050565b600060408301600083015161278a60008601826128c1565b50602083015184820360208601526127a2828261238e565b9150508091505092915050565b600060a0830160008301516127c760008601826123ec565b5060208301516127da60208601826128c1565b5060408301516127ed60408601826128c1565b50606083015161280060608601826128c1565b50608083015184820360808601526128188282612428565b9150508091505092915050565b600060e08301600083015161283d60008601826128c1565b50602083015161285060208601826128c1565b50604083015161286360408601826124c7565b5060608301516128766060860182612370565b5060808301516128896080860182612370565b5060a083015161289c60a08601826128c1565b5060c083015184820360c08601526128b48282612428565b9150508091505092915050565b6128ca81612d57565b82525050565b6128d981612d57565b82525050565b60006040820190506128f4600083018561237f565b61290160208301846123fb565b9392505050565b600060408201905061291d600083018561237f565b61292a60208301846128d0565b9392505050565b600060208201905061294660008301846123fb565b92915050565b60006080820190506129616000830187612419565b61296e60208301866128d0565b61297b60408301856128d0565b818103606083015261298d8184612461565b905095945050505050565b60006020820190506129ad600083018461249a565b92915050565b60006020820190506129c860008301846124a9565b92915050565b60006020820190506129e360008301846124b8565b92915050565b60006020820190508181036000830152612a02816124d6565b9050919050565b60006020820190508181036000830152612a228161253c565b9050919050565b60006020820190508181036000830152612a428161257c565b9050919050565b60006020820190508181036000830152612a62816125bc565b9050919050565b60006020820190508181036000830152612a82816125fc565b9050919050565b60006020820190508181036000830152612aa28161263c565b9050919050565b60006020820190508181036000830152612ac28161267c565b9050919050565b60006020820190508181036000830152612ae2816126bc565b9050919050565b60006080820190508181036000830152612b038187612825565b90508181036020830152612b1781866127af565b90508181036040830152612b2b81856126fc565b90508181036060830152612b3f8184612772565b905095945050505050565b6000602082019050612b5f60008301846128d0565b92915050565b600060e082019050612b7a600083018a6128d0565b612b8760208301896128d0565b612b94604083018861237f565b612ba1606083018761237f565b612bae608083018661237f565b612bbb60a08301856128d0565b612bc860c08301846128d0565b98975050505050505050565b6000604051905081810181811067ffffffffffffffff82111715612bfb57612bfa612e31565b5b8060405250919050565b600067ffffffffffffffff821115612c2057612c1f612e31565b5b602082029050602081019050919050565b600067ffffffffffffffff821115612c4c57612c4b612e31565b5b601f19601f8301169050602081019050919050565b6000819050602082019050919050565b600081519050919050565b600081519050919050565b6000602082019050919050565b600082825260208201905092915050565b600082825260208201905092915050565b600082825260208201905092915050565b600082825260208201905092915050565b6000612ce382612d37565b9050919050565b6000612cf582612d37565b9050919050565b60008115159050919050565b6000819050919050565b6000612d1d82612cd8565b9050919050565b6000819050612d3282612e44565b919050565b600073ffffffffffffffffffffffffffffffffffffffff82169050919050565b6000819050919050565b600063ffffffff82169050919050565b6000612d7c82612d83565b9050919050565b6000612d8e82612d37565b9050919050565b6000612da082612da7565b9050919050565b6000612db282612d37565b9050919050565b6000612dc482612dcb565b9050919050565b6000612dd682612d37565b9050919050565b6000612de882612d24565b9050919050565b82818337600083830152505050565b60005b83811015612e1c578082015181840152602081019050612e01565b83811115612e2b576000848401525b50505050565bfe5b6000601f19601f8301169050919050565b60028110612e5557612e54612e31565b5b50565b612e6181612cd8565b8114612e6c57600080fd5b50565b612e7881612cea565b8114612e8357600080fd5b50565b612e8f81612cfc565b8114612e9a57600080fd5b50565b612ea681612d08565b8114612eb157600080fd5b50565b612ebd81612d12565b8114612ec857600080fd5b50565b60028110612ed857600080fd5b50565b612ee481612d57565b8114612eef57600080fd5b50565b612efb81612d61565b8114612f0657600080fd5b5056fe50726f766964656420524c50206c6973742065786365656473206d6178206c697374206c656e6774682ea264697066735822122068c0905c08ed43cf64567c46101a522d5369d9807dc8626db966b61bba67ba8d64736f6c63430007060033",
  "devdoc": {
    "kind": "dev",
    "methods": {},
    "version": 1
  },
  "userdoc": {
    "kind": "user",
    "methods": {},
    "version": 1
  },
  "storageLayout": {
    "storage": [
      {
        "astId": 8062,
        "contract": "contracts/L1Oracle.sol:L1Oracle",
        "label": "ctc",
        "offset": 0,
        "slot": "0",
        "type": "t_contract(iOVM_CanonicalTransactionChain)757"
      },
      {
        "astId": 8064,
        "contract": "contracts/L1Oracle.sol:L1Oracle",
        "label": "scc",
        "offset": 0,
        "slot": "1",
        "type": "t_contract(OVM_StateCommitmentChain)506"
      },
      {
        "astId": 8066,
        "contract": "contracts/L1Oracle.sol:L1Oracle",
        "label": "claimableToken",
        "offset": 0,
        "slot": "2",
        "type": "t_contract(L1ClaimableToken)8032"
      },
      {
        "astId": 8068,
        "contract": "contracts/L1Oracle.sol:L1Oracle",
        "label": "tokenId",
        "offset": 0,
        "slot": "3",
        "type": "t_uint256"
      },
      {
        "astId": 8071,
        "contract": "contracts/L1Oracle.sol:L1Oracle",
        "label": "FASTWITHDRAW_SELECTOR",
        "offset": 0,
        "slot": "4",
        "type": "t_bytes_storage"
      },
      {
        "astId": 8075,
        "contract": "contracts/L1Oracle.sol:L1Oracle",
        "label": "minted",
        "offset": 0,
        "slot": "5",
        "type": "t_mapping(t_uint256,t_bool)"
      }
    ],
    "types": {
      "t_bool": {
        "encoding": "inplace",
        "label": "bool",
        "numberOfBytes": "1"
      },
      "t_bytes_storage": {
        "encoding": "bytes",
        "label": "bytes",
        "numberOfBytes": "32"
      },
      "t_contract(L1ClaimableToken)8032": {
        "encoding": "inplace",
        "label": "contract L1ClaimableToken",
        "numberOfBytes": "20"
      },
      "t_contract(OVM_StateCommitmentChain)506": {
        "encoding": "inplace",
        "label": "contract OVM_StateCommitmentChain",
        "numberOfBytes": "20"
      },
      "t_contract(iOVM_CanonicalTransactionChain)757": {
        "encoding": "inplace",
        "label": "contract iOVM_CanonicalTransactionChain",
        "numberOfBytes": "20"
      },
      "t_mapping(t_uint256,t_bool)": {
        "encoding": "mapping",
        "key": "t_uint256",
        "label": "mapping(uint256 => bool)",
        "numberOfBytes": "32",
        "value": "t_bool"
      },
      "t_uint256": {
        "encoding": "inplace",
        "label": "uint256",
        "numberOfBytes": "32"
      }
    }
  }
}